{
  "address": "0xF200C68d4Ce05BE1b14Da3E31dBEb6bF6ff4469D",
  "abi": [
    {
      "inputs": [
        {
          "internalType": "address",
          "name": "collection_",
          "type": "address"
        }
      ],
      "stateMutability": "nonpayable",
      "type": "constructor"
    },
    {
      "anonymous": false,
      "inputs": [
        {
          "indexed": true,
          "internalType": "enum CryptoKombatMixer.HeroEdition",
          "name": "edition",
          "type": "uint8"
        },
        {
          "indexed": true,
          "internalType": "uint256",
          "name": "id",
          "type": "uint256"
        }
      ],
      "name": "EditionToIdMappingAdded",
      "type": "event"
    },
    {
      "anonymous": false,
      "inputs": [
        {
          "indexed": true,
          "internalType": "enum CryptoKombatMixer.HeroEdition",
          "name": "edition",
          "type": "uint8"
        },
        {
          "indexed": true,
          "internalType": "uint256[]",
          "name": "ids",
          "type": "uint256[]"
        }
      ],
      "name": "EditionToIdMappingSet",
      "type": "event"
    },
    {
      "anonymous": false,
      "inputs": [
        {
          "indexed": true,
          "internalType": "address",
          "name": "account",
          "type": "address"
        },
        {
          "indexed": true,
          "internalType": "bytes32",
          "name": "requestId",
          "type": "bytes32"
        },
        {
          "indexed": false,
          "internalType": "enum CryptoKombatMixer.HeroEdition",
          "name": "editionIn",
          "type": "uint8"
        }
      ],
      "name": "HeroesMixReverted",
      "type": "event"
    },
    {
      "anonymous": false,
      "inputs": [
        {
          "indexed": true,
          "internalType": "address",
          "name": "account",
          "type": "address"
        },
        {
          "indexed": true,
          "internalType": "bytes32",
          "name": "requestId",
          "type": "bytes32"
        },
        {
          "indexed": false,
          "internalType": "enum CryptoKombatMixer.HeroEdition",
          "name": "editionIn",
          "type": "uint8"
        },
        {
          "indexed": false,
          "internalType": "enum CryptoKombatMixer.HeroEdition",
          "name": "editionOut",
          "type": "uint8"
        },
        {
          "indexed": false,
          "internalType": "uint256",
          "name": "tokenId",
          "type": "uint256"
        }
      ],
      "name": "HeroesMixSuceess",
      "type": "event"
    },
    {
      "anonymous": false,
      "inputs": [
        {
          "indexed": true,
          "internalType": "enum CryptoKombatMixer.HeroEdition",
          "name": "editionIn",
          "type": "uint8"
        },
        {
          "indexed": true,
          "internalType": "enum CryptoKombatMixer.HeroEdition[]",
          "name": "editionsOut",
          "type": "uint8[]"
        },
        {
          "indexed": true,
          "internalType": "uint256[]",
          "name": "chances",
          "type": "uint256[]"
        }
      ],
      "name": "MixerConfigSet",
      "type": "event"
    },
    {
      "anonymous": false,
      "inputs": [
        {
          "indexed": true,
          "internalType": "address",
          "name": "previousOwner",
          "type": "address"
        },
        {
          "indexed": true,
          "internalType": "address",
          "name": "newOwner",
          "type": "address"
        }
      ],
      "name": "OwnershipTransferred",
      "type": "event"
    },
    {
      "inputs": [
        {
          "internalType": "enum CryptoKombatMixer.HeroEdition",
          "name": "_edition",
          "type": "uint8"
        },
        {
          "internalType": "uint256",
          "name": "_id",
          "type": "uint256"
        }
      ],
      "name": "addEditionToIdMapping",
      "outputs": [],
      "stateMutability": "nonpayable",
      "type": "function"
    },
    {
      "inputs": [
        {
          "internalType": "uint256[]",
          "name": "_ids",
          "type": "uint256[]"
        }
      ],
      "name": "burnHeroesBatch",
      "outputs": [],
      "stateMutability": "nonpayable",
      "type": "function"
    },
    {
      "inputs": [],
      "name": "collection",
      "outputs": [
        {
          "internalType": "contract ICollection",
          "name": "",
          "type": "address"
        }
      ],
      "stateMutability": "view",
      "type": "function"
    },
    {
      "inputs": [
        {
          "internalType": "enum CryptoKombatMixer.HeroEdition",
          "name": "",
          "type": "uint8"
        },
        {
          "internalType": "uint256",
          "name": "",
          "type": "uint256"
        }
      ],
      "name": "editionToHeroIds",
      "outputs": [
        {
          "internalType": "uint256",
          "name": "",
          "type": "uint256"
        }
      ],
      "stateMutability": "view",
      "type": "function"
    },
    {
      "inputs": [
        {
          "internalType": "uint256",
          "name": "",
          "type": "uint256"
        }
      ],
      "name": "heroIdToEdition",
      "outputs": [
        {
          "internalType": "enum CryptoKombatMixer.HeroEdition",
          "name": "",
          "type": "uint8"
        }
      ],
      "stateMutability": "view",
      "type": "function"
    },
    {
      "inputs": [
        {
          "internalType": "uint256[]",
          "name": "_ids",
          "type": "uint256[]"
        }
      ],
      "name": "mixHeroes",
      "outputs": [],
      "stateMutability": "nonpayable",
      "type": "function"
    },
    {
      "inputs": [
        {
          "internalType": "bytes32",
          "name": "",
          "type": "bytes32"
        }
      ],
      "name": "mixRequests",
      "outputs": [
        {
          "internalType": "address",
          "name": "account",
          "type": "address"
        },
        {
          "internalType": "enum CryptoKombatMixer.HeroEdition",
          "name": "editionIn",
          "type": "uint8"
        }
      ],
      "stateMutability": "view",
      "type": "function"
    },
    {
      "inputs": [
        {
          "internalType": "enum CryptoKombatMixer.HeroEdition",
          "name": "",
          "type": "uint8"
        },
        {
          "internalType": "enum CryptoKombatMixer.HeroEdition",
          "name": "",
          "type": "uint8"
        }
      ],
      "name": "mixerConfigs",
      "outputs": [
        {
          "internalType": "uint256",
          "name": "",
          "type": "uint256"
        }
      ],
      "stateMutability": "view",
      "type": "function"
    },
    {
      "inputs": [
        {
          "internalType": "address",
          "name": "",
          "type": "address"
        },
        {
          "internalType": "address",
          "name": "",
          "type": "address"
        },
        {
          "internalType": "uint256[]",
          "name": "",
          "type": "uint256[]"
        },
        {
          "internalType": "uint256[]",
          "name": "",
          "type": "uint256[]"
        },
        {
          "internalType": "bytes",
          "name": "",
          "type": "bytes"
        }
      ],
      "name": "onERC1155BatchReceived",
      "outputs": [
        {
          "internalType": "bytes4",
          "name": "",
          "type": "bytes4"
        }
      ],
      "stateMutability": "nonpayable",
      "type": "function"
    },
    {
      "inputs": [
        {
          "internalType": "address",
          "name": "",
          "type": "address"
        },
        {
          "internalType": "address",
          "name": "",
          "type": "address"
        },
        {
          "internalType": "uint256",
          "name": "",
          "type": "uint256"
        },
        {
          "internalType": "uint256",
          "name": "",
          "type": "uint256"
        },
        {
          "internalType": "bytes",
          "name": "",
          "type": "bytes"
        }
      ],
      "name": "onERC1155Received",
      "outputs": [
        {
          "internalType": "bytes4",
          "name": "",
          "type": "bytes4"
        }
      ],
      "stateMutability": "nonpayable",
      "type": "function"
    },
    {
      "inputs": [],
      "name": "owner",
      "outputs": [
        {
          "internalType": "address",
          "name": "",
          "type": "address"
        }
      ],
      "stateMutability": "view",
      "type": "function"
    },
    {
      "inputs": [],
      "name": "renounceOwnership",
      "outputs": [],
      "stateMutability": "nonpayable",
      "type": "function"
    },
    {
      "inputs": [
        {
          "internalType": "uint256[]",
          "name": "_ids",
          "type": "uint256[]"
        }
      ],
      "name": "retrieveHeroesBatch",
      "outputs": [],
      "stateMutability": "nonpayable",
      "type": "function"
    },
    {
      "inputs": [
        {
          "internalType": "enum CryptoKombatMixer.HeroEdition",
          "name": "_edition",
          "type": "uint8"
        },
        {
          "internalType": "uint256[]",
          "name": "_ids",
          "type": "uint256[]"
        }
      ],
      "name": "setEditionToIdMapping",
      "outputs": [],
      "stateMutability": "nonpayable",
      "type": "function"
    },
    {
      "inputs": [
        {
          "internalType": "enum CryptoKombatMixer.HeroEdition",
          "name": "_in",
          "type": "uint8"
        },
        {
          "internalType": "enum CryptoKombatMixer.HeroEdition[]",
          "name": "_out",
          "type": "uint8[]"
        },
        {
          "internalType": "uint256[]",
          "name": "_chances",
          "type": "uint256[]"
        }
      ],
      "name": "setMixerConfig",
      "outputs": [],
      "stateMutability": "nonpayable",
      "type": "function"
    },
    {
      "inputs": [
        {
          "internalType": "bytes4",
          "name": "interfaceId",
          "type": "bytes4"
        }
      ],
      "name": "supportsInterface",
      "outputs": [
        {
          "internalType": "bool",
          "name": "",
          "type": "bool"
        }
      ],
      "stateMutability": "view",
      "type": "function"
    },
    {
      "inputs": [
        {
          "internalType": "address",
          "name": "newOwner",
          "type": "address"
        }
      ],
      "name": "transferOwnership",
      "outputs": [],
      "stateMutability": "nonpayable",
      "type": "function"
    }
  ],
  "transactionHash": "0xf1e7e997fc97723fc19e38280b11d5b0efa7a015cfae4bdbea5af0f592edc069",
  "args": [
    "0x611477c54F8f2dA620Ea0A3B44729929c6C91a27"
  ],
  "solcInputHash": "f286c9902e5b2eb6524acda723fabc80",
  "bytecode": "0x60806040523480156200001157600080fd5b50604051620022c1380380620022c1833981016040819052620000349162000123565b6200003f33620000d3565b6001600160a01b038116620000ad5760405162461bcd60e51b815260206004820152602a60248201527f43727970746f4b6f6d6261744d697865723a20436f6c6c656374696f6e207a65604482015269726f206164647265737360b01b606482015260840160405180910390fd5b600480546001600160a01b0319166001600160a01b039290921691909117905562000153565b600080546001600160a01b038381166001600160a01b0319831681178455604051919092169283917f8be0079c531659141344cd1fd0a4f28419497f9722a3daafe3b4186f6b6457e09190a35050565b60006020828403121562000135578081fd5b81516001600160a01b03811681146200014c578182fd5b9392505050565b61215e80620001636000396000f3fe608060405234801561001057600080fd5b506004361061010b5760003560e01c80638da5cb5b116100a2578063bc197c8111610071578063bc197c8114610241578063bf39853a14610279578063edc1bd15146102a4578063f23a6e61146102e7578063f2fde38b1461030657600080fd5b80638da5cb5b146101e9578063a3a25811146101fa578063a8d913ae1461020d578063bace13351461022e57600080fd5b8063715018a6116100de578063715018a61461019057806375c18eac14610198578063774e54c8146101ab5780637de1e536146101be57600080fd5b806301ffc9a71461011057806354c023e31461013857806357966eab146101685780636ec2a9441461017d575b600080fd5b61012361011e366004611b11565b610319565b60405190151581526020015b60405180910390f35b61015b610146366004611af9565b60026020526000908152604090205460ff1681565b60405161012f9190611e8b565b61017b610176366004611c0c565b610350565b005b61017b61018b366004611abe565b61051a565b61017b6105df565b61017b6101a6366004611abe565b610615565b61017b6101b9366004611abe565b610667565b6004546101d1906001600160a01b031681565b6040516001600160a01b03909116815260200161012f565b6000546001600160a01b03166101d1565b61017b610208366004611c8a565b610908565b61022061021b366004611c8a565b610a66565b60405190815260200161012f565b61017b61023c366004611b39565b610a97565b61026061024f3660046119b5565b63bc197c8160e01b95945050505050565b6040516001600160e01b0319909116815260200161012f565b610220610287366004611c58565b600160209081526000928352604080842090915290825290205481565b6102d96102b2366004611af9565b6007602052600090815260409020546001600160a01b03811690600160a01b900460ff1682565b60405161012f929190611e37565b6102606102f5366004611a5b565b63f23a6e6160e01b95945050505050565b61017b610314366004611994565b610d5f565b60006001600160e01b03198216630271189760e51b148061034a57506301ffc9a760e01b6001600160e01b03198316145b92915050565b6000546001600160a01b031633146103835760405162461bcd60e51b815260040161037a90611ec2565b60405180910390fd5b60008260048111156103a557634e487b7160e01b600052602160045260246000fd5b14156103c35760405162461bcd60e51b815260040161037a90611ef7565b60005b81518110156104505782600260008484815181106103f457634e487b7160e01b600052603260045260246000fd5b6020026020010151815260200190815260200160002060006101000a81548160ff0219169083600481111561043957634e487b7160e01b600052602160045260246000fd5b021790555080610448816120c1565b9150506103c6565b50806003600084600481111561047657634e487b7160e01b600052602160045260246000fd5b600481111561049557634e487b7160e01b600052602160045260246000fd5b815260200190815260200160002090805190602001906104b6929190611815565b50806040516104c59190611daf565b60405180910390208260048111156104ed57634e487b7160e01b600052602160045260246000fd5b6040517f36aba613eb3694c3753a05bf3442ff022f6cb16e782bd9761a052dad2b599aec90600090a35050565b6000546001600160a01b031633146105445760405162461bcd60e51b815260040161037a90611ec2565b60045481516001600160a01b0390911690632eb2c2d690309061dead90859061056e906001610df7565b6040518060400160405280600381526020016203078360ec1b8152506040518663ffffffff1660e01b81526004016105aa959493929190611dd9565b600060405180830381600087803b1580156105c457600080fd5b505af11580156105d8573d6000803e3d6000fd5b5050505050565b6000546001600160a01b031633146106095760405162461bcd60e51b815260040161037a90611ec2565b6106136000610e9c565b565b6000546001600160a01b0316331461063f5760405162461bcd60e51b815260040161037a90611ec2565b60045481516001600160a01b0390911690632eb2c2d69030903390859061056e906001610df7565b80516003146106ca5760405162461bcd60e51b815260206004820152602960248201527f43727970746f4b6f6d6261744d697865723a20496e636f727265637420696e706044820152680eae840d8cadccee8d60bb1b606482015260840161037a565b6106d381610eec565b6107365760405162461bcd60e51b815260206004820152602e60248201527f43727970746f4b6f6d6261744d697865723a20496e7075742065646974696f6e60448201526d7320617265206e6f742073616d6560901b606482015260840161037a565b60045481516001600160a01b0390911690632eb2c2d69033903090859061075e906001610df7565b6040518060400160405280600381526020016203078360ec1b8152506040518663ffffffff1660e01b815260040161079a959493929190611dd9565b600060405180830381600087803b1580156107b457600080fd5b505af11580156107c8573d6000803e3d6000fd5b5050600680549250905060006107dd836120c1565b91905055506040518060600160405280336001600160a01b03168152602001600260008460008151811061082157634e487b7160e01b600052603260045260246000fd5b60209081029190910181015182528101919091526040016000205460ff16600481111561085e57634e487b7160e01b600052602160045260246000fd5b8152602090810183905260065460009081526007825260409020825181546001600160a01b039091166001600160a01b031982168117835592840151919283916001600160a81b03191617600160a01b8360048111156108ce57634e487b7160e01b600052602160045260246000fd5b0217905550604082015180516108ee916001840191602090910190611815565b50506006546109059150610900610ff5565b61106f565b50565b6000546001600160a01b031633146109325760405162461bcd60e51b815260040161037a90611ec2565b600082600481111561095457634e487b7160e01b600052602160045260246000fd5b14156109725760405162461bcd60e51b815260040161037a90611ef7565b6000818152600260205260409020805483919060ff191660018360048111156109ab57634e487b7160e01b600052602160045260246000fd5b0217905550600360008360048111156109d457634e487b7160e01b600052602160045260246000fd5b60048111156109f357634e487b7160e01b600052602160045260246000fd5b8152602080820192909252604001600090812080546001810182559082529190200181905580826004811115610a3957634e487b7160e01b600052602160045260246000fd5b6040517f5789842d8b93af6faed85ab793032aa86657a55244b60959791ca8adf2fc70ab90600090a35050565b60036020528160005260406000208181548110610a8257600080fd5b90600052602060002001600091509150505481565b6000546001600160a01b03163314610ac15760405162461bcd60e51b815260040161037a90611ec2565b8051825114610b245760405162461bcd60e51b815260206004820152602960248201527f43727970746f4b6f6d6261744d697865723a20506172616d73206c656e677468604482015268040dad2e6dac2e8c6d60bb1b606482015260840161037a565b6000805b8251811015610c6a57828181518110610b5157634e487b7160e01b600052603260045260246000fd5b602002602001015182610b649190611f9f565b9150828181518110610b8657634e487b7160e01b600052603260045260246000fd5b602002602001015160016000876004811115610bb257634e487b7160e01b600052602160045260246000fd5b6004811115610bd157634e487b7160e01b600052602160045260246000fd5b81526020019081526020016000206000868481518110610c0157634e487b7160e01b600052603260045260246000fd5b60200260200101516004811115610c2857634e487b7160e01b600052602160045260246000fd5b6004811115610c4757634e487b7160e01b600052602160045260246000fd5b815260208101919091526040016000205580610c62816120c1565b915050610b28565b50610c776003600a611ffa565b610c829060646120a2565b811115610ce45760405162461bcd60e51b815260206004820152602a60248201527f43727970746f4b6f6d6261744d697865723a204368616e6365732073756d20656044820152697863656564203130302560b01b606482015260840161037a565b81604051610cf29190611daf565b604051809103902083604051610d089190611d72565b6040518091039020856004811115610d3057634e487b7160e01b600052602160045260246000fd5b6040517f94255ac2323f7bbf8e1d32727a195533d9cd12672fd19507756f10391251356d90600090a450505050565b6000546001600160a01b03163314610d895760405162461bcd60e51b815260040161037a90611ec2565b6001600160a01b038116610dee5760405162461bcd60e51b815260206004820152602660248201527f4f776e61626c653a206e6577206f776e657220697320746865207a65726f206160448201526564647265737360d01b606482015260840161037a565b61090581610e9c565b60608267ffffffffffffffff811115610e2057634e487b7160e01b600052604160045260246000fd5b604051908082528060200260200182016040528015610e49578160200160208202803683370190505b50905060005b83811015610e955782828281518110610e7857634e487b7160e01b600052603260045260246000fd5b602090810291909101015280610e8d816120c1565b915050610e4f565b5092915050565b600080546001600160a01b038381166001600160a01b0319831681178455604051919092169283917f8be0079c531659141344cd1fd0a4f28419497f9722a3daafe3b4186f6b6457e09190a35050565b6000806002600084600081518110610f1457634e487b7160e01b600052603260045260246000fd5b60209081029190910181015182528101919091526040016000205460ff16905060015b8351811015610feb5760006002600086600081518110610f6757634e487b7160e01b600052603260045260246000fd5b60209081029190910181015182528101919091526040016000205460ff169050806004811115610fa757634e487b7160e01b600052602160045260246000fd5b836004811115610fc757634e487b7160e01b600052602160045260246000fd5b14610fd757506000949350505050565b915080610fe3816120c1565b915050610f37565b5060019392505050565b6005805460009182611006836120c1565b91905055504342446110153390565b6005546040805160208101969096528501939093526060808501929092526bffffffffffffffffffffffff19911b166080830152609482015260b4016040516020818303038152906040528051906020012060001c905090565b600082815260076020908152604080832081516060810190925280546001600160a01b03811683529192909190830190600160a01b900460ff1660048111156110c857634e487b7160e01b600052602160045260246000fd5b60048111156110e757634e487b7160e01b600052602160045260246000fd5b81526020016001820180548060200260200160405190810160405280929190818152602001828054801561113a57602002820191906000526020600020905b815481526020019060010190808311611126575b505050505081525050905060006003600a6111559190611ffa565b6111609060646120a2565b61116a90846120dc565b90506000600160008460200151600481111561119657634e487b7160e01b600052602160045260246000fd5b60048111156111b557634e487b7160e01b600052602160045260246000fd5b81526020019081526020016000206000600260048111156111e657634e487b7160e01b600052602160045260246000fd5b600481111561120557634e487b7160e01b600052602160045260246000fd5b81526020019081526020016000205490506000600160008560200151600481111561124057634e487b7160e01b600052602160045260246000fd5b600481111561125f57634e487b7160e01b600052602160045260246000fd5b815260200190815260200160002060006003600481111561129057634e487b7160e01b600052602160045260246000fd5b60048111156112af57634e487b7160e01b600052602160045260246000fd5b815260200190815260200160002054905060008284116112d1575060026112f1565b82841180156112e05750818411155b156112ed575060036112f1565b5060045b60006112fd82886114f3565b905080156113d757600480548751604080518082018252600381526203078360ec1b6020820152905163731133e960e01b81526001600160a01b039093169363731133e9936113529392879260019201611e54565b600060405180830381600087803b15801561136c57600080fd5b505af1158015611380573d6000803e3d6000fd5b505050508786600001516001600160a01b03167f383137ba3994fdb5820b4488eb30c894e8d0b1b27f7dd4f7cf6d2adddb9b5121886020015185856040516113ca93929190611e99565b60405180910390a36114bd565b6004548651604088015180516001600160a01b0390931692632eb2c2d69230929091611404906001610df7565b6040518060400160405280600381526020016203078360ec1b8152506040518663ffffffff1660e01b8152600401611440959493929190611dd9565b600060405180830381600087803b15801561145a57600080fd5b505af115801561146e573d6000803e3d6000fd5b505050508786600001516001600160a01b03167f666e8c3b80992ccf45eb0ff41e79ac6bec6ccdb4b4df641cf1c4778b5c1dce7088602001516040516114b49190611e8b565b60405180910390a35b600088815260076020526040812080546001600160a81b0319168155906114e76001830182611860565b50505050505050505050565b60008061150183600a61174b565b905060015b81518110156117405760006003600087600481111561153557634e487b7160e01b600052602160045260246000fd5b600481111561155457634e487b7160e01b600052602160045260246000fd5b81526020019081526020016000208054905083838151811061158657634e487b7160e01b600052603260045260246000fd5b602002602001015161159891906120dc565b9050600360008760048111156115be57634e487b7160e01b600052602160045260246000fd5b60048111156115dd57634e487b7160e01b600052602160045260246000fd5b8152602001908152602001600020818154811061160a57634e487b7160e01b600052603260045260246000fd5b600091825260209091200154600480546040516321a7dd6560e21b81529296506001600160a01b03169163869f75949161164a9188910190815260200190565b60206040518083038186803b15801561166257600080fd5b505afa158015611676573d6000803e3d6000fd5b505050506040513d601f19601f8201168201806040525081019061169a9190611cb3565b6004805460405163bd85b03960e01b81529182018790526001600160a01b03169063bd85b0399060240160206040518083038186803b1580156116dc57600080fd5b505afa1580156116f0573d6000803e3d6000fd5b505050506040513d601f19601f820116820180604052508101906117149190611cb3565b61171f906001611f9f565b101561172d5750505061034a565b5080611738816120c1565b915050611506565b506000949350505050565b60608167ffffffffffffffff81111561177457634e487b7160e01b600052604160045260246000fd5b60405190808252806020026020018201604052801561179d578160200160208202803683370190505b50905060005b82811015610e955760408051602081018690529081018290526060016040516020818303038152906040528051906020012060001c8282815181106117f857634e487b7160e01b600052603260045260246000fd5b60209081029190910101528061180d816120c1565b9150506117a3565b828054828255906000526020600020908101928215611850579160200282015b82811115611850578251825591602001919060010190611835565b5061185c92915061187a565b5090565b508054600082559060005260206000209081019061090591905b5b8082111561185c576000815560010161187b565b80356001600160a01b03811681146118a657600080fd5b919050565b600082601f8301126118bb578081fd5b813560206118d06118cb83611f7b565b611f4a565b80838252828201915082860187848660051b89010111156118ef578586fd5b855b8581101561190d578135845292840192908401906001016118f1565b5090979650505050505050565b600082601f83011261192a578081fd5b813567ffffffffffffffff81111561194457611944612112565b611957601f8201601f1916602001611f4a565b81815284602083860101111561196b578283fd5b816020850160208301379081016020019190915292915050565b8035600581106118a657600080fd5b6000602082840312156119a5578081fd5b6119ae8261188f565b9392505050565b600080600080600060a086880312156119cc578081fd5b6119d58661188f565b94506119e36020870161188f565b9350604086013567ffffffffffffffff808211156119ff578283fd5b611a0b89838a016118ab565b94506060880135915080821115611a20578283fd5b611a2c89838a016118ab565b93506080880135915080821115611a41578283fd5b50611a4e8882890161191a565b9150509295509295909350565b600080600080600060a08688031215611a72578081fd5b611a7b8661188f565b9450611a896020870161188f565b93506040860135925060608601359150608086013567ffffffffffffffff811115611ab2578182fd5b611a4e8882890161191a565b600060208284031215611acf578081fd5b813567ffffffffffffffff811115611ae5578182fd5b611af1848285016118ab565b949350505050565b600060208284031215611b0a578081fd5b5035919050565b600060208284031215611b22578081fd5b81356001600160e01b0319811681146119ae578182fd5b600080600060608486031215611b4d578283fd5b611b5684611985565b925060208085013567ffffffffffffffff80821115611b73578485fd5b818701915087601f830112611b86578485fd5b8135611b946118cb82611f7b565b8082825285820191508585018b878560051b8801011115611bb3578889fd5b8895505b83861015611bdc57611bc881611985565b835260019590950194918601918601611bb7565b50965050506040870135925080831115611bf4578384fd5b5050611c02868287016118ab565b9150509250925092565b60008060408385031215611c1e578182fd5b611c2783611985565b9150602083013567ffffffffffffffff811115611c42578182fd5b611c4e858286016118ab565b9150509250929050565b60008060408385031215611c6a578182fd5b611c7383611985565b9150611c8160208401611985565b90509250929050565b60008060408385031215611c9c578182fd5b611ca583611985565b946020939093013593505050565b600060208284031215611cc4578081fd5b5051919050565b6000815180845260208085019450808401835b83811015611cfa57815187529582019590820190600101611cde565b509495945050505050565b60008151808452815b81811015611d2a57602081850181015186830182015201611d0e565b81811115611d3b5782602083870101525b50601f01601f19169290920160200192915050565b60058110611d6e57634e487b7160e01b600052602160045260246000fd5b9052565b815160009082906020808601845b83811015611da357611d93858351611d50565b9382019390820190600101611d80565b50929695505050505050565b815160009082906020808601845b83811015611da357815185529382019390820190600101611dbd565b6001600160a01b0386811682528516602082015260a060408201819052600090611e0590830186611ccb565b8281036060840152611e178186611ccb565b90508281036080840152611e2b8185611d05565b98975050505050505050565b6001600160a01b0383168152604081016119ae6020830184611d50565b60018060a01b0385168152836020820152826040820152608060608201526000611e816080830184611d05565b9695505050505050565b6020810161034a8284611d50565b60608101611ea78286611d50565b611eb46020830185611d50565b826040830152949350505050565b6020808252818101527f4f776e61626c653a2063616c6c6572206973206e6f7420746865206f776e6572604082015260600190565b60208082526033908201527f43727970746f4b6f6d6261744d697865723a2043616e6e6f742073657420696460408201527239903337b91022a6a82a2c9032b234ba34b7b760691b606082015260800190565b604051601f8201601f1916810167ffffffffffffffff81118282101715611f7357611f73612112565b604052919050565b600067ffffffffffffffff821115611f9557611f95612112565b5060051b60200190565b60008219821115611fb257611fb26120fc565b500190565b600181815b80851115611ff2578160001904821115611fd857611fd86120fc565b80851615611fe557918102915b93841c9390800290611fbc565b509250929050565b60006119ae83836000826120105750600161034a565b8161201d5750600061034a565b8160018114612033576002811461203d57612059565b600191505061034a565b60ff84111561204e5761204e6120fc565b50506001821b61034a565b5060208310610133831016604e8410600b841016171561207c575081810a61034a565b6120868383611fb7565b806000190482111561209a5761209a6120fc565b029392505050565b60008160001904831182151516156120bc576120bc6120fc565b500290565b60006000198214156120d5576120d56120fc565b5060010190565b6000826120f757634e487b7160e01b81526012600452602481fd5b500690565b634e487b7160e01b600052601160045260246000fd5b634e487b7160e01b600052604160045260246000fdfea2646970667358221220bb60d904f76f15a66457a6425d8d809af11051f09e66966d325e9bac54873abe64736f6c63430008040033",
  "devdoc": {
    "kind": "dev",
    "methods": {
      "owner()": {
        "details": "Returns the address of the current owner."
      },
      "renounceOwnership()": {
        "details": "Leaves the contract without owner. It will not be possible to call `onlyOwner` functions anymore. Can only be called by the current owner. NOTE: Renouncing ownership will leave the contract without an owner, thereby removing any functionality that is only available to the owner."
      },
      "supportsInterface(bytes4)": {
        "details": "See {IERC165-supportsInterface}."
      },
      "transferOwnership(address)": {
        "details": "Transfers ownership of the contract to a new account (`newOwner`). Can only be called by the current owner."
      }
    },
    "version": 1
  },
  "userdoc": {
    "kind": "user",
    "methods": {},
    "version": 1
  },
  "storageLayout": {
    "storage": [
      {
        "astId": 857,
        "contract": "contracts/CryptoKombatMixer.sol:CryptoKombatMixer",
        "label": "_owner",
        "offset": 0,
        "slot": "0",
        "type": "t_address"
      },
      {
        "astId": 4544,
        "contract": "contracts/CryptoKombatMixer.sol:CryptoKombatMixer",
        "label": "mixerConfigs",
        "offset": 0,
        "slot": "1",
        "type": "t_mapping(t_enum(HeroEdition)4527,t_mapping(t_enum(HeroEdition)4527,t_uint256))"
      },
      {
        "astId": 4549,
        "contract": "contracts/CryptoKombatMixer.sol:CryptoKombatMixer",
        "label": "heroIdToEdition",
        "offset": 0,
        "slot": "2",
        "type": "t_mapping(t_uint256,t_enum(HeroEdition)4527)"
      },
      {
        "astId": 4555,
        "contract": "contracts/CryptoKombatMixer.sol:CryptoKombatMixer",
        "label": "editionToHeroIds",
        "offset": 0,
        "slot": "3",
        "type": "t_mapping(t_enum(HeroEdition)4527,t_array(t_uint256)dyn_storage)"
      },
      {
        "astId": 4558,
        "contract": "contracts/CryptoKombatMixer.sol:CryptoKombatMixer",
        "label": "collection",
        "offset": 0,
        "slot": "4",
        "type": "t_contract(ICollection)6188"
      },
      {
        "astId": 4573,
        "contract": "contracts/CryptoKombatMixer.sol:CryptoKombatMixer",
        "label": "randomNonce",
        "offset": 0,
        "slot": "5",
        "type": "t_uint256"
      },
      {
        "astId": 4575,
        "contract": "contracts/CryptoKombatMixer.sol:CryptoKombatMixer",
        "label": "mixRequestId",
        "offset": 0,
        "slot": "6",
        "type": "t_uint256"
      },
      {
        "astId": 4580,
        "contract": "contracts/CryptoKombatMixer.sol:CryptoKombatMixer",
        "label": "mixRequests",
        "offset": 0,
        "slot": "7",
        "type": "t_mapping(t_bytes32,t_struct(MixRequest)4536_storage)"
      }
    ],
    "types": {
      "t_address": {
        "encoding": "inplace",
        "label": "address",
        "numberOfBytes": "20"
      },
      "t_array(t_uint256)dyn_storage": {
        "base": "t_uint256",
        "encoding": "dynamic_array",
        "label": "uint256[]",
        "numberOfBytes": "32"
      },
      "t_bytes32": {
        "encoding": "inplace",
        "label": "bytes32",
        "numberOfBytes": "32"
      },
      "t_contract(ICollection)6188": {
        "encoding": "inplace",
        "label": "contract ICollection",
        "numberOfBytes": "20"
      },
      "t_enum(HeroEdition)4527": {
        "encoding": "inplace",
        "label": "enum CryptoKombatMixer.HeroEdition",
        "numberOfBytes": "1"
      },
      "t_mapping(t_bytes32,t_struct(MixRequest)4536_storage)": {
        "encoding": "mapping",
        "key": "t_bytes32",
        "label": "mapping(bytes32 => struct CryptoKombatMixer.MixRequest)",
        "numberOfBytes": "32",
        "value": "t_struct(MixRequest)4536_storage"
      },
      "t_mapping(t_enum(HeroEdition)4527,t_array(t_uint256)dyn_storage)": {
        "encoding": "mapping",
        "key": "t_enum(HeroEdition)4527",
        "label": "mapping(enum CryptoKombatMixer.HeroEdition => uint256[])",
        "numberOfBytes": "32",
        "value": "t_array(t_uint256)dyn_storage"
      },
      "t_mapping(t_enum(HeroEdition)4527,t_mapping(t_enum(HeroEdition)4527,t_uint256))": {
        "encoding": "mapping",
        "key": "t_enum(HeroEdition)4527",
        "label": "mapping(enum CryptoKombatMixer.HeroEdition => mapping(enum CryptoKombatMixer.HeroEdition => uint256))",
        "numberOfBytes": "32",
        "value": "t_mapping(t_enum(HeroEdition)4527,t_uint256)"
      },
      "t_mapping(t_enum(HeroEdition)4527,t_uint256)": {
        "encoding": "mapping",
        "key": "t_enum(HeroEdition)4527",
        "label": "mapping(enum CryptoKombatMixer.HeroEdition => uint256)",
        "numberOfBytes": "32",
        "value": "t_uint256"
      },
      "t_mapping(t_uint256,t_enum(HeroEdition)4527)": {
        "encoding": "mapping",
        "key": "t_uint256",
        "label": "mapping(uint256 => enum CryptoKombatMixer.HeroEdition)",
        "numberOfBytes": "32",
        "value": "t_enum(HeroEdition)4527"
      },
      "t_struct(MixRequest)4536_storage": {
        "encoding": "inplace",
        "label": "struct CryptoKombatMixer.MixRequest",
        "members": [
          {
            "astId": 4529,
            "contract": "contracts/CryptoKombatMixer.sol:CryptoKombatMixer",
            "label": "account",
            "offset": 0,
            "slot": "0",
            "type": "t_address"
          },
          {
            "astId": 4532,
            "contract": "contracts/CryptoKombatMixer.sol:CryptoKombatMixer",
            "label": "editionIn",
            "offset": 20,
            "slot": "0",
            "type": "t_enum(HeroEdition)4527"
          },
          {
            "astId": 4535,
            "contract": "contracts/CryptoKombatMixer.sol:CryptoKombatMixer",
            "label": "inIds",
            "offset": 0,
            "slot": "1",
            "type": "t_array(t_uint256)dyn_storage"
          }
        ],
        "numberOfBytes": "64"
      },
      "t_uint256": {
        "encoding": "inplace",
        "label": "uint256",
        "numberOfBytes": "32"
      }
    }
  }
}