{
  "address": "0xD8523df83E1Fffccc39f27446dBC659c32CBd449",
  "abi": [
    {
      "inputs": [
        {
          "internalType": "address",
          "name": "collection_",
          "type": "address"
        }
      ],
      "stateMutability": "nonpayable",
      "type": "constructor"
    },
    {
      "anonymous": false,
      "inputs": [
        {
          "indexed": true,
          "internalType": "enum CryptoKombatMixer.HeroEdition",
          "name": "edition",
          "type": "uint8"
        },
        {
          "indexed": true,
          "internalType": "uint256",
          "name": "id",
          "type": "uint256"
        }
      ],
      "name": "EditionToIdMappingAdded",
      "type": "event"
    },
    {
      "anonymous": false,
      "inputs": [
        {
          "indexed": true,
          "internalType": "enum CryptoKombatMixer.HeroEdition",
          "name": "edition",
          "type": "uint8"
        },
        {
          "indexed": true,
          "internalType": "uint256[]",
          "name": "ids",
          "type": "uint256[]"
        }
      ],
      "name": "EditionToIdMappingSet",
      "type": "event"
    },
    {
      "anonymous": false,
      "inputs": [
        {
          "indexed": true,
          "internalType": "address",
          "name": "account",
          "type": "address"
        },
        {
          "indexed": true,
          "internalType": "bytes32",
          "name": "requestId",
          "type": "bytes32"
        },
        {
          "indexed": false,
          "internalType": "enum CryptoKombatMixer.HeroEdition",
          "name": "editionIn",
          "type": "uint8"
        }
      ],
      "name": "HeroesMixReverted",
      "type": "event"
    },
    {
      "anonymous": false,
      "inputs": [
        {
          "indexed": true,
          "internalType": "address",
          "name": "account",
          "type": "address"
        },
        {
          "indexed": true,
          "internalType": "bytes32",
          "name": "requestId",
          "type": "bytes32"
        },
        {
          "indexed": false,
          "internalType": "enum CryptoKombatMixer.HeroEdition",
          "name": "editionIn",
          "type": "uint8"
        },
        {
          "indexed": false,
          "internalType": "enum CryptoKombatMixer.HeroEdition",
          "name": "editionOut",
          "type": "uint8"
        },
        {
          "indexed": false,
          "internalType": "uint256",
          "name": "tokenId",
          "type": "uint256"
        }
      ],
      "name": "HeroesMixSuceess",
      "type": "event"
    },
    {
      "anonymous": false,
      "inputs": [
        {
          "indexed": true,
          "internalType": "address",
          "name": "account",
          "type": "address"
        },
        {
          "indexed": true,
          "internalType": "bytes32",
          "name": "requestId",
          "type": "bytes32"
        }
      ],
      "name": "MixRequested",
      "type": "event"
    },
    {
      "anonymous": false,
      "inputs": [
        {
          "indexed": true,
          "internalType": "enum CryptoKombatMixer.HeroEdition",
          "name": "editionIn",
          "type": "uint8"
        },
        {
          "indexed": true,
          "internalType": "enum CryptoKombatMixer.HeroEdition[]",
          "name": "editionsOut",
          "type": "uint8[]"
        },
        {
          "indexed": true,
          "internalType": "uint256[]",
          "name": "chances",
          "type": "uint256[]"
        }
      ],
      "name": "MixerConfigSet",
      "type": "event"
    },
    {
      "anonymous": false,
      "inputs": [
        {
          "indexed": true,
          "internalType": "address",
          "name": "previousOwner",
          "type": "address"
        },
        {
          "indexed": true,
          "internalType": "address",
          "name": "newOwner",
          "type": "address"
        }
      ],
      "name": "OwnershipTransferred",
      "type": "event"
    },
    {
      "inputs": [
        {
          "internalType": "enum CryptoKombatMixer.HeroEdition",
          "name": "_edition",
          "type": "uint8"
        },
        {
          "internalType": "uint256",
          "name": "_id",
          "type": "uint256"
        }
      ],
      "name": "addEditionToIdMapping",
      "outputs": [],
      "stateMutability": "nonpayable",
      "type": "function"
    },
    {
      "inputs": [],
      "name": "burnAllHeroes",
      "outputs": [],
      "stateMutability": "nonpayable",
      "type": "function"
    },
    {
      "inputs": [
        {
          "internalType": "uint256[]",
          "name": "_ids",
          "type": "uint256[]"
        }
      ],
      "name": "burnHeroesBatch",
      "outputs": [],
      "stateMutability": "nonpayable",
      "type": "function"
    },
    {
      "inputs": [],
      "name": "collection",
      "outputs": [
        {
          "internalType": "contract ICollection",
          "name": "",
          "type": "address"
        }
      ],
      "stateMutability": "view",
      "type": "function"
    },
    {
      "inputs": [
        {
          "internalType": "enum CryptoKombatMixer.HeroEdition",
          "name": "",
          "type": "uint8"
        },
        {
          "internalType": "uint256",
          "name": "",
          "type": "uint256"
        }
      ],
      "name": "editionToHeroIds",
      "outputs": [
        {
          "internalType": "uint256",
          "name": "",
          "type": "uint256"
        }
      ],
      "stateMutability": "view",
      "type": "function"
    },
    {
      "inputs": [
        {
          "internalType": "uint256",
          "name": "",
          "type": "uint256"
        }
      ],
      "name": "heroIdToEdition",
      "outputs": [
        {
          "internalType": "enum CryptoKombatMixer.HeroEdition",
          "name": "",
          "type": "uint8"
        }
      ],
      "stateMutability": "view",
      "type": "function"
    },
    {
      "inputs": [
        {
          "internalType": "uint256[]",
          "name": "_ids",
          "type": "uint256[]"
        }
      ],
      "name": "mixHeroes",
      "outputs": [],
      "stateMutability": "nonpayable",
      "type": "function"
    },
    {
      "inputs": [
        {
          "internalType": "bytes32",
          "name": "",
          "type": "bytes32"
        }
      ],
      "name": "mixRequests",
      "outputs": [
        {
          "internalType": "address",
          "name": "account",
          "type": "address"
        },
        {
          "internalType": "enum CryptoKombatMixer.HeroEdition",
          "name": "editionIn",
          "type": "uint8"
        }
      ],
      "stateMutability": "view",
      "type": "function"
    },
    {
      "inputs": [
        {
          "internalType": "enum CryptoKombatMixer.HeroEdition",
          "name": "",
          "type": "uint8"
        },
        {
          "internalType": "enum CryptoKombatMixer.HeroEdition",
          "name": "",
          "type": "uint8"
        }
      ],
      "name": "mixerConfigs",
      "outputs": [
        {
          "internalType": "uint256",
          "name": "",
          "type": "uint256"
        }
      ],
      "stateMutability": "view",
      "type": "function"
    },
    {
      "inputs": [
        {
          "internalType": "address",
          "name": "",
          "type": "address"
        },
        {
          "internalType": "address",
          "name": "",
          "type": "address"
        },
        {
          "internalType": "uint256[]",
          "name": "",
          "type": "uint256[]"
        },
        {
          "internalType": "uint256[]",
          "name": "",
          "type": "uint256[]"
        },
        {
          "internalType": "bytes",
          "name": "",
          "type": "bytes"
        }
      ],
      "name": "onERC1155BatchReceived",
      "outputs": [
        {
          "internalType": "bytes4",
          "name": "",
          "type": "bytes4"
        }
      ],
      "stateMutability": "nonpayable",
      "type": "function"
    },
    {
      "inputs": [
        {
          "internalType": "address",
          "name": "",
          "type": "address"
        },
        {
          "internalType": "address",
          "name": "",
          "type": "address"
        },
        {
          "internalType": "uint256",
          "name": "",
          "type": "uint256"
        },
        {
          "internalType": "uint256",
          "name": "",
          "type": "uint256"
        },
        {
          "internalType": "bytes",
          "name": "",
          "type": "bytes"
        }
      ],
      "name": "onERC1155Received",
      "outputs": [
        {
          "internalType": "bytes4",
          "name": "",
          "type": "bytes4"
        }
      ],
      "stateMutability": "nonpayable",
      "type": "function"
    },
    {
      "inputs": [],
      "name": "owner",
      "outputs": [
        {
          "internalType": "address",
          "name": "",
          "type": "address"
        }
      ],
      "stateMutability": "view",
      "type": "function"
    },
    {
      "inputs": [],
      "name": "recoverAllHeroes",
      "outputs": [],
      "stateMutability": "nonpayable",
      "type": "function"
    },
    {
      "inputs": [
        {
          "internalType": "uint256[]",
          "name": "_ids",
          "type": "uint256[]"
        }
      ],
      "name": "recoverHeroes",
      "outputs": [],
      "stateMutability": "nonpayable",
      "type": "function"
    },
    {
      "inputs": [],
      "name": "renounceOwnership",
      "outputs": [],
      "stateMutability": "nonpayable",
      "type": "function"
    },
    {
      "inputs": [
        {
          "internalType": "enum CryptoKombatMixer.HeroEdition",
          "name": "_edition",
          "type": "uint8"
        },
        {
          "internalType": "uint256[]",
          "name": "_ids",
          "type": "uint256[]"
        }
      ],
      "name": "setEditionToIdMapping",
      "outputs": [],
      "stateMutability": "nonpayable",
      "type": "function"
    },
    {
      "inputs": [
        {
          "internalType": "enum CryptoKombatMixer.HeroEdition",
          "name": "_in",
          "type": "uint8"
        },
        {
          "internalType": "enum CryptoKombatMixer.HeroEdition[]",
          "name": "_out",
          "type": "uint8[]"
        },
        {
          "internalType": "uint256[]",
          "name": "_chances",
          "type": "uint256[]"
        }
      ],
      "name": "setMixerConfig",
      "outputs": [],
      "stateMutability": "nonpayable",
      "type": "function"
    },
    {
      "inputs": [
        {
          "internalType": "bytes4",
          "name": "interfaceId",
          "type": "bytes4"
        }
      ],
      "name": "supportsInterface",
      "outputs": [
        {
          "internalType": "bool",
          "name": "",
          "type": "bool"
        }
      ],
      "stateMutability": "view",
      "type": "function"
    },
    {
      "inputs": [
        {
          "internalType": "address",
          "name": "newOwner",
          "type": "address"
        }
      ],
      "name": "transferOwnership",
      "outputs": [],
      "stateMutability": "nonpayable",
      "type": "function"
    }
  ],
  "transactionHash": "0x1eefb000b66dcd9059221d50ce24f24d7d92101157f561bbd3e3a9c3f743d309",
  "args": [
    "0x611477c54F8f2dA620Ea0A3B44729929c6C91a27"
  ],
  "solcInputHash": "33fc6d853087f5029ab7cc86543f8b8a",
  "bytecode": "0x60806040523480156200001157600080fd5b5060405162002a4538038062002a45833981016040819052620000349162000123565b6200003f33620000d3565b6001600160a01b038116620000ad5760405162461bcd60e51b815260206004820152602a60248201527f43727970746f4b6f6d6261744d697865723a20436f6c6c656374696f6e207a65604482015269726f206164647265737360b01b606482015260840160405180910390fd5b600480546001600160a01b0319166001600160a01b039290921691909117905562000153565b600080546001600160a01b038381166001600160a01b0319831681178455604051919092169283917f8be0079c531659141344cd1fd0a4f28419497f9722a3daafe3b4186f6b6457e09190a35050565b60006020828403121562000135578081fd5b81516001600160a01b03811681146200014c578182fd5b9392505050565b6128e280620001636000396000f3fe608060405234801561001057600080fd5b50600436106101215760003560e01c80638da5cb5b116100ad578063bf39853a11610071578063bf39853a14610297578063edc1bd15146102c2578063f23a6e6114610305578063f2b15a4114610324578063f2fde38b1461032c57600080fd5b80638da5cb5b14610207578063a3a2581114610218578063a8d913ae1461022b578063bace13351461024c578063bc197c811461025f57600080fd5b806357966eab116100f457806357966eab1461019b5780636ec2a944146101ae578063715018a6146101c1578063774e54c8146101c95780637de1e536146101dc57600080fd5b806301ffc9a714610126578063335cea181461014e578063342057391461016357806354c023e31461016b575b600080fd5b610139610134366004612250565b61033f565b60405190151581526020015b60405180910390f35b61016161015c3660046121fd565b610376565b005b6101616103b6565b61018e610179366004612238565b60026020526000908152604090205460ff1681565b604051610145919061260f565b6101616101a936600461234b565b6103eb565b6101616101bc3660046121fd565b6105ac565b6101616105e2565b6101616101d73660046121fd565b610616565b6004546101ef906001600160a01b031681565b6040516001600160a01b039091168152602001610145565b6000546001600160a01b03166101ef565b6101616102263660046123c9565b6108e4565b61023e6102393660046123c9565b610a42565b604051908152602001610145565b61016161025a366004612278565b610a73565b61027e61026d3660046120f4565b63bc197c8160e01b95945050505050565b6040516001600160e01b03199091168152602001610145565b61023e6102a5366004612397565b600160209081526000928352604080842090915290825290205481565b6102f76102d0366004612238565b6007602052600090815260409020546001600160a01b03811690600160a01b900460ff1682565b6040516101459291906125bb565b61027e61031336600461219a565b63f23a6e6160e01b95945050505050565b610161610d3b565b61016161033a3660046120d3565b610d70565b60006001600160e01b03198216630271189760e51b148061037057506301ffc9a760e01b6001600160e01b03198316145b92915050565b6000546001600160a01b031633146103a95760405162461bcd60e51b81526004016103a090612646565b60405180910390fd5b6103b38133610e08565b50565b6000546001600160a01b031633146103e05760405162461bcd60e51b81526004016103a090612646565b6103e933610ea2565b565b6000546001600160a01b031633146104155760405162461bcd60e51b81526004016103a090612646565b600082600481111561043757634e487b7160e01b600052602160045260246000fd5b14156104555760405162461bcd60e51b81526004016103a09061267b565b60005b81518110156104e257826002600084848151811061048657634e487b7160e01b600052603260045260246000fd5b6020026020010151815260200190815260200160002060006101000a81548160ff021916908360048111156104cb57634e487b7160e01b600052602160045260246000fd5b0217905550806104da81612845565b915050610458565b50806003600084600481111561050857634e487b7160e01b600052602160045260246000fd5b600481111561052757634e487b7160e01b600052602160045260246000fd5b81526020019081526020016000209080519060200190610548929190611f54565b508060405161055791906124ee565b604051809103902082600481111561057f57634e487b7160e01b600052602160045260246000fd5b6040517f36aba613eb3694c3753a05bf3442ff022f6cb16e782bd9761a052dad2b599aec90600090a35050565b6000546001600160a01b031633146105d65760405162461bcd60e51b81526004016103a090612646565b6103b38161dead610e08565b6000546001600160a01b0316331461060c5760405162461bcd60e51b81526004016103a090612646565b6103e960006114e4565b80516003146106795760405162461bcd60e51b815260206004820152602960248201527f43727970746f4b6f6d6261744d697865723a20496e636f727265637420696e706044820152680eae840d8cadccee8d60bb1b60648201526084016103a0565b61068281611534565b6106e55760405162461bcd60e51b815260206004820152602e60248201527f43727970746f4b6f6d6261744d697865723a20496e7075742065646974696f6e60448201526d7320617265206e6f742073616d6560901b60648201526084016103a0565b60045481516001600160a01b0390911690632eb2c2d69033903090859061070d90600161163d565b6040518060400160405280600381526020016203078360ec1b8152506040518663ffffffff1660e01b8152600401610749959493929190612518565b600060405180830381600087803b15801561076357600080fd5b505af1158015610777573d6000803e3d6000fd5b50506006805492509050600061078c83612845565b91905055506040518060600160405280336001600160a01b0316815260200160026000846000815181106107d057634e487b7160e01b600052603260045260246000fd5b60209081029190910181015182528101919091526040016000205460ff16600481111561080d57634e487b7160e01b600052602160045260246000fd5b8152602090810183905260065460009081526007825260409020825181546001600160a01b039091166001600160a01b031982168117835592840151919283916001600160a81b03191617600160a01b83600481111561087d57634e487b7160e01b600052602160045260246000fd5b02179055506040820151805161089d916001840191602090910190611f54565b505060065460405190915033907fe7c46debaef5a7b1120c52d0a106b71d796c5b6d2ed456c2728258d12a4279cd90600090a36006546103b3906108df6116e2565b61175c565b6000546001600160a01b0316331461090e5760405162461bcd60e51b81526004016103a090612646565b600082600481111561093057634e487b7160e01b600052602160045260246000fd5b141561094e5760405162461bcd60e51b81526004016103a09061267b565b6000818152600260205260409020805483919060ff1916600183600481111561098757634e487b7160e01b600052602160045260246000fd5b0217905550600360008360048111156109b057634e487b7160e01b600052602160045260246000fd5b60048111156109cf57634e487b7160e01b600052602160045260246000fd5b8152602080820192909252604001600090812080546001810182559082529190200181905580826004811115610a1557634e487b7160e01b600052602160045260246000fd5b6040517f5789842d8b93af6faed85ab793032aa86657a55244b60959791ca8adf2fc70ab90600090a35050565b60036020528160005260406000208181548110610a5e57600080fd5b90600052602060002001600091509150505481565b6000546001600160a01b03163314610a9d5760405162461bcd60e51b81526004016103a090612646565b8051825114610b005760405162461bcd60e51b815260206004820152602960248201527f43727970746f4b6f6d6261744d697865723a20506172616d73206c656e677468604482015268040dad2e6dac2e8c6d60bb1b60648201526084016103a0565b6000805b8251811015610c4657828181518110610b2d57634e487b7160e01b600052603260045260246000fd5b602002602001015182610b409190612723565b9150828181518110610b6257634e487b7160e01b600052603260045260246000fd5b602002602001015160016000876004811115610b8e57634e487b7160e01b600052602160045260246000fd5b6004811115610bad57634e487b7160e01b600052602160045260246000fd5b81526020019081526020016000206000868481518110610bdd57634e487b7160e01b600052603260045260246000fd5b60200260200101516004811115610c0457634e487b7160e01b600052602160045260246000fd5b6004811115610c2357634e487b7160e01b600052602160045260246000fd5b815260208101919091526040016000205580610c3e81612845565b915050610b04565b50610c536003600a61277e565b610c5e906064612826565b811115610cc05760405162461bcd60e51b815260206004820152602a60248201527f43727970746f4b6f6d6261744d697865723a204368616e6365732073756d20656044820152697863656564203130302560b01b60648201526084016103a0565b81604051610cce91906124ee565b604051809103902083604051610ce491906124b1565b6040518091039020856004811115610d0c57634e487b7160e01b600052602160045260246000fd5b6040517f94255ac2323f7bbf8e1d32727a195533d9cd12672fd19507756f10391251356d90600090a450505050565b6000546001600160a01b03163314610d655760405162461bcd60e51b81526004016103a090612646565b6103e961dead610ea2565b6000546001600160a01b03163314610d9a5760405162461bcd60e51b81526004016103a090612646565b6001600160a01b038116610dff5760405162461bcd60e51b815260206004820152602660248201527f4f776e61626c653a206e6577206f776e657220697320746865207a65726f206160448201526564647265737360d01b60648201526084016103a0565b6103b3816114e4565b60045482516001600160a01b0390911690632eb2c2d690309084908690610e3090600161163d565b6040518060400160405280600381526020016203078360ec1b8152506040518663ffffffff1660e01b8152600401610e6c959493929190612518565b600060405180830381600087803b158015610e8657600080fd5b505af1158015610e9a573d6000803e3d6000fd5b505050505050565b60046000908152600360209081527f83ec6a1f0257b830b5e016457c9cf1435391bf56cc98f369a58a54fe937724658054604080518285028101850190915281815292830182828015610f1457602002820191906000526020600020905b815481526020019060010190808311610f00575b5050505050905060005b81518110156110b75760045482516000916001600160a01b03169062fdd58e903090869086908110610f6057634e487b7160e01b600052603260045260246000fd5b60200260200101516040518363ffffffff1660e01b8152600401610f999291906001600160a01b03929092168252602082015260400190565b60206040518083038186803b158015610fb157600080fd5b505afa158015610fc5573d6000803e3d6000fd5b505050506040513d601f19601f82011682018060405250810190610fe991906123f2565b905080156110a45760045483516001600160a01b039091169063f242432a903090879087908790811061102c57634e487b7160e01b600052603260045260246000fd5b6020026020010151856040518060400160405280600381526020016203078360ec1b8152506040518663ffffffff1660e01b8152600401611071959493929190612576565b600060405180830381600087803b15801561108b57600080fd5b505af115801561109f573d6000803e3d6000fd5b505050505b50806110af81612845565b915050610f1e565b506003600081905260209081527fcbc4e5fb02c3d1de23a9f1e014b4d2ee5aeaea9505df5e855c9210bf472495af805460408051828502810185019091528181529283018282801561112857602002820191906000526020600020905b815481526020019060010190808311611114575b5050505050905060005b81518110156112cb5760045482516000916001600160a01b03169062fdd58e90309086908690811061117457634e487b7160e01b600052603260045260246000fd5b60200260200101516040518363ffffffff1660e01b81526004016111ad9291906001600160a01b03929092168252602082015260400190565b60206040518083038186803b1580156111c557600080fd5b505afa1580156111d9573d6000803e3d6000fd5b505050506040513d601f19601f820116820180604052508101906111fd91906123f2565b905080156112b85760045483516001600160a01b039091169063f242432a903090879087908790811061124057634e487b7160e01b600052603260045260246000fd5b6020026020010151856040518060400160405280600381526020016203078360ec1b8152506040518663ffffffff1660e01b8152600401611285959493929190612576565b600060405180830381600087803b15801561129f57600080fd5b505af11580156112b3573d6000803e3d6000fd5b505050505b50806112c381612845565b915050611132565b506002600052600360209081527fc3a24b0501bd2c13a7e57f2db4369ec4c223447539fc0724a9d55ac4a06ebd4d805460408051828502810185019091528181529283018282801561133c57602002820191906000526020600020905b815481526020019060010190808311611328575b5050505050905060005b81518110156114df5760045482516000916001600160a01b03169062fdd58e90309086908690811061138857634e487b7160e01b600052603260045260246000fd5b60200260200101516040518363ffffffff1660e01b81526004016113c19291906001600160a01b03929092168252602082015260400190565b60206040518083038186803b1580156113d957600080fd5b505afa1580156113ed573d6000803e3d6000fd5b505050506040513d601f19601f8201168201806040525081019061141191906123f2565b905080156114cc5760045483516001600160a01b039091169063f242432a903090879087908790811061145457634e487b7160e01b600052603260045260246000fd5b6020026020010151856040518060400160405280600381526020016203078360ec1b8152506040518663ffffffff1660e01b8152600401611499959493929190612576565b600060405180830381600087803b1580156114b357600080fd5b505af11580156114c7573d6000803e3d6000fd5b505050505b50806114d781612845565b915050611346565b505050565b600080546001600160a01b038381166001600160a01b0319831681178455604051919092169283917f8be0079c531659141344cd1fd0a4f28419497f9722a3daafe3b4186f6b6457e09190a35050565b600080600260008460008151811061155c57634e487b7160e01b600052603260045260246000fd5b60209081029190910181015182528101919091526040016000205460ff16905060015b835181101561163357600060026000866000815181106115af57634e487b7160e01b600052603260045260246000fd5b60209081029190910181015182528101919091526040016000205460ff1690508060048111156115ef57634e487b7160e01b600052602160045260246000fd5b83600481111561160f57634e487b7160e01b600052602160045260246000fd5b1461161f57506000949350505050565b91508061162b81612845565b91505061157f565b5060019392505050565b60608267ffffffffffffffff81111561166657634e487b7160e01b600052604160045260246000fd5b60405190808252806020026020018201604052801561168f578160200160208202803683370190505b50905060005b838110156116db57828282815181106116be57634e487b7160e01b600052603260045260246000fd5b6020908102919091010152806116d381612845565b915050611695565b5092915050565b60058054600091826116f383612845565b91905055504342446117023390565b6005546040805160208101969096528501939093526060808501929092526bffffffffffffffffffffffff19911b166080830152609482015260b4016040516020818303038152906040528051906020012060001c905090565b600082815260076020908152604080832081516060810190925280546001600160a01b03811683529192909190830190600160a01b900460ff1660048111156117b557634e487b7160e01b600052602160045260246000fd5b60048111156117d457634e487b7160e01b600052602160045260246000fd5b81526020016001820180548060200260200160405190810160405280929190818152602001828054801561182757602002820191906000526020600020905b815481526020019060010190808311611813575b505050505081525050905060006003600a611842919061277e565b61184d906064612826565b6118579084612860565b90506000600160008460200151600481111561188357634e487b7160e01b600052602160045260246000fd5b60048111156118a257634e487b7160e01b600052602160045260246000fd5b81526020019081526020016000206000600260048111156118d357634e487b7160e01b600052602160045260246000fd5b60048111156118f257634e487b7160e01b600052602160045260246000fd5b81526020019081526020016000205490506000600160008560200151600481111561192d57634e487b7160e01b600052602160045260246000fd5b600481111561194c57634e487b7160e01b600052602160045260246000fd5b815260200190815260200160002060006003600481111561197d57634e487b7160e01b600052602160045260246000fd5b600481111561199c57634e487b7160e01b600052602160045260246000fd5b815260200190815260200160002054905060008284116119be575060026119de565b82841180156119cd5750818411155b156119da575060036119de565b5060045b60006119ea8288611be0565b90508015611ac457600480548751604080518082018252600381526203078360ec1b6020820152905163731133e960e01b81526001600160a01b039093169363731133e993611a3f93928792600192016125d8565b600060405180830381600087803b158015611a5957600080fd5b505af1158015611a6d573d6000803e3d6000fd5b505050508786600001516001600160a01b03167f383137ba3994fdb5820b4488eb30c894e8d0b1b27f7dd4f7cf6d2adddb9b512188602001518585604051611ab79392919061261d565b60405180910390a3611baa565b6004548651604088015180516001600160a01b0390931692632eb2c2d69230929091611af190600161163d565b6040518060400160405280600381526020016203078360ec1b8152506040518663ffffffff1660e01b8152600401611b2d959493929190612518565b600060405180830381600087803b158015611b4757600080fd5b505af1158015611b5b573d6000803e3d6000fd5b505050508786600001516001600160a01b03167f666e8c3b80992ccf45eb0ff41e79ac6bec6ccdb4b4df641cf1c4778b5c1dce708860200151604051611ba1919061260f565b60405180910390a35b600088815260076020526040812080546001600160a81b031916815590611bd46001830182611f9f565b50505050505050505050565b600080611c408360036000876004811115611c0b57634e487b7160e01b600052602160045260246000fd5b6004811115611c2a57634e487b7160e01b600052602160045260246000fd5b8152602081019190915260400160002054611e8a565b905060015b8151811015611e7f57600060036000876004811115611c7457634e487b7160e01b600052602160045260246000fd5b6004811115611c9357634e487b7160e01b600052602160045260246000fd5b815260200190815260200160002080549050838381518110611cc557634e487b7160e01b600052603260045260246000fd5b6020026020010151611cd79190612860565b905060036000876004811115611cfd57634e487b7160e01b600052602160045260246000fd5b6004811115611d1c57634e487b7160e01b600052602160045260246000fd5b81526020019081526020016000208181548110611d4957634e487b7160e01b600052603260045260246000fd5b600091825260209091200154600480546040516321a7dd6560e21b81529296506001600160a01b03169163869f759491611d899188910190815260200190565b60206040518083038186803b158015611da157600080fd5b505afa158015611db5573d6000803e3d6000fd5b505050506040513d601f19601f82011682018060405250810190611dd991906123f2565b6004805460405163bd85b03960e01b81529182018790526001600160a01b03169063bd85b0399060240160206040518083038186803b158015611e1b57600080fd5b505afa158015611e2f573d6000803e3d6000fd5b505050506040513d601f19601f82011682018060405250810190611e5391906123f2565b611e5e906001612723565b1015611e6c57505050610370565b5080611e7781612845565b915050611c45565b506000949350505050565b60608167ffffffffffffffff811115611eb357634e487b7160e01b600052604160045260246000fd5b604051908082528060200260200182016040528015611edc578160200160208202803683370190505b50905060005b828110156116db5760408051602081018690529081018290526060016040516020818303038152906040528051906020012060001c828281518110611f3757634e487b7160e01b600052603260045260246000fd5b602090810291909101015280611f4c81612845565b915050611ee2565b828054828255906000526020600020908101928215611f8f579160200282015b82811115611f8f578251825591602001919060010190611f74565b50611f9b929150611fb9565b5090565b50805460008255906000526020600020908101906103b391905b5b80821115611f9b5760008155600101611fba565b80356001600160a01b0381168114611fe557600080fd5b919050565b600082601f830112611ffa578081fd5b8135602061200f61200a836126ff565b6126ce565b80838252828201915082860187848660051b890101111561202e578586fd5b855b8581101561204c57813584529284019290840190600101612030565b5090979650505050505050565b600082601f830112612069578081fd5b813567ffffffffffffffff81111561208357612083612896565b612096601f8201601f19166020016126ce565b8181528460208386010111156120aa578283fd5b816020850160208301379081016020019190915292915050565b803560058110611fe557600080fd5b6000602082840312156120e4578081fd5b6120ed82611fce565b9392505050565b600080600080600060a0868803121561210b578081fd5b61211486611fce565b945061212260208701611fce565b9350604086013567ffffffffffffffff8082111561213e578283fd5b61214a89838a01611fea565b9450606088013591508082111561215f578283fd5b61216b89838a01611fea565b93506080880135915080821115612180578283fd5b5061218d88828901612059565b9150509295509295909350565b600080600080600060a086880312156121b1578081fd5b6121ba86611fce565b94506121c860208701611fce565b93506040860135925060608601359150608086013567ffffffffffffffff8111156121f1578182fd5b61218d88828901612059565b60006020828403121561220e578081fd5b813567ffffffffffffffff811115612224578182fd5b61223084828501611fea565b949350505050565b600060208284031215612249578081fd5b5035919050565b600060208284031215612261578081fd5b81356001600160e01b0319811681146120ed578182fd5b60008060006060848603121561228c578283fd5b612295846120c4565b925060208085013567ffffffffffffffff808211156122b2578485fd5b818701915087601f8301126122c5578485fd5b81356122d361200a826126ff565b8082825285820191508585018b878560051b88010111156122f2578889fd5b8895505b8386101561231b57612307816120c4565b8352600195909501949186019186016122f6565b50965050506040870135925080831115612333578384fd5b505061234186828701611fea565b9150509250925092565b6000806040838503121561235d578182fd5b612366836120c4565b9150602083013567ffffffffffffffff811115612381578182fd5b61238d85828601611fea565b9150509250929050565b600080604083850312156123a9578182fd5b6123b2836120c4565b91506123c0602084016120c4565b90509250929050565b600080604083850312156123db578182fd5b6123e4836120c4565b946020939093013593505050565b600060208284031215612403578081fd5b5051919050565b6000815180845260208085019450808401835b838110156124395781518752958201959082019060010161241d565b509495945050505050565b60008151808452815b818110156124695760208185018101518683018201520161244d565b8181111561247a5782602083870101525b50601f01601f19169290920160200192915050565b600581106124ad57634e487b7160e01b600052602160045260246000fd5b9052565b815160009082906020808601845b838110156124e2576124d285835161248f565b93820193908201906001016124bf565b50929695505050505050565b815160009082906020808601845b838110156124e2578151855293820193908201906001016124fc565b6001600160a01b0386811682528516602082015260a0604082018190526000906125449083018661240a565b8281036060840152612556818661240a565b9050828103608084015261256a8185612444565b98975050505050505050565b6001600160a01b03868116825285166020820152604081018490526060810183905260a0608082018190526000906125b090830184612444565b979650505050505050565b6001600160a01b0383168152604081016120ed602083018461248f565b60018060a01b03851681528360208201528260408201526080606082015260006126056080830184612444565b9695505050505050565b60208101610370828461248f565b6060810161262b828661248f565b612638602083018561248f565b826040830152949350505050565b6020808252818101527f4f776e61626c653a2063616c6c6572206973206e6f7420746865206f776e6572604082015260600190565b60208082526033908201527f43727970746f4b6f6d6261744d697865723a2043616e6e6f742073657420696460408201527239903337b91022a6a82a2c9032b234ba34b7b760691b606082015260800190565b604051601f8201601f1916810167ffffffffffffffff811182821017156126f7576126f7612896565b604052919050565b600067ffffffffffffffff82111561271957612719612896565b5060051b60200190565b6000821982111561273657612736612880565b500190565b600181815b8085111561277657816000190482111561275c5761275c612880565b8085161561276957918102915b93841c9390800290612740565b509250929050565b60006120ed838360008261279457506001610370565b816127a157506000610370565b81600181146127b757600281146127c1576127dd565b6001915050610370565b60ff8411156127d2576127d2612880565b50506001821b610370565b5060208310610133831016604e8410600b8410161715612800575081810a610370565b61280a838361273b565b806000190482111561281e5761281e612880565b029392505050565b600081600019048311821515161561284057612840612880565b500290565b600060001982141561285957612859612880565b5060010190565b60008261287b57634e487b7160e01b81526012600452602481fd5b500690565b634e487b7160e01b600052601160045260246000fd5b634e487b7160e01b600052604160045260246000fdfea2646970667358221220c47279c86ea453b96d50c56a7e137f48ecf602754349a9e45f2217e1f6f6f76e64736f6c63430008040033",
  "devdoc": {
    "kind": "dev",
    "methods": {
      "owner()": {
        "details": "Returns the address of the current owner."
      },
      "renounceOwnership()": {
        "details": "Leaves the contract without owner. It will not be possible to call `onlyOwner` functions anymore. Can only be called by the current owner. NOTE: Renouncing ownership will leave the contract without an owner, thereby removing any functionality that is only available to the owner."
      },
      "supportsInterface(bytes4)": {
        "details": "See {IERC165-supportsInterface}."
      },
      "transferOwnership(address)": {
        "details": "Transfers ownership of the contract to a new account (`newOwner`). Can only be called by the current owner."
      }
    },
    "version": 1
  },
  "userdoc": {
    "kind": "user",
    "methods": {},
    "version": 1
  },
  "storageLayout": {
    "storage": [
      {
        "astId": 857,
        "contract": "contracts/CryptoKombatMixer.sol:CryptoKombatMixer",
        "label": "_owner",
        "offset": 0,
        "slot": "0",
        "type": "t_address"
      },
      {
        "astId": 4544,
        "contract": "contracts/CryptoKombatMixer.sol:CryptoKombatMixer",
        "label": "mixerConfigs",
        "offset": 0,
        "slot": "1",
        "type": "t_mapping(t_enum(HeroEdition)4527,t_mapping(t_enum(HeroEdition)4527,t_uint256))"
      },
      {
        "astId": 4549,
        "contract": "contracts/CryptoKombatMixer.sol:CryptoKombatMixer",
        "label": "heroIdToEdition",
        "offset": 0,
        "slot": "2",
        "type": "t_mapping(t_uint256,t_enum(HeroEdition)4527)"
      },
      {
        "astId": 4555,
        "contract": "contracts/CryptoKombatMixer.sol:CryptoKombatMixer",
        "label": "editionToHeroIds",
        "offset": 0,
        "slot": "3",
        "type": "t_mapping(t_enum(HeroEdition)4527,t_array(t_uint256)dyn_storage)"
      },
      {
        "astId": 4558,
        "contract": "contracts/CryptoKombatMixer.sol:CryptoKombatMixer",
        "label": "collection",
        "offset": 0,
        "slot": "4",
        "type": "t_contract(ICollection)6406"
      },
      {
        "astId": 4573,
        "contract": "contracts/CryptoKombatMixer.sol:CryptoKombatMixer",
        "label": "randomNonce",
        "offset": 0,
        "slot": "5",
        "type": "t_uint256"
      },
      {
        "astId": 4575,
        "contract": "contracts/CryptoKombatMixer.sol:CryptoKombatMixer",
        "label": "mixRequestId",
        "offset": 0,
        "slot": "6",
        "type": "t_uint256"
      },
      {
        "astId": 4580,
        "contract": "contracts/CryptoKombatMixer.sol:CryptoKombatMixer",
        "label": "mixRequests",
        "offset": 0,
        "slot": "7",
        "type": "t_mapping(t_bytes32,t_struct(MixRequest)4536_storage)"
      }
    ],
    "types": {
      "t_address": {
        "encoding": "inplace",
        "label": "address",
        "numberOfBytes": "20"
      },
      "t_array(t_uint256)dyn_storage": {
        "base": "t_uint256",
        "encoding": "dynamic_array",
        "label": "uint256[]",
        "numberOfBytes": "32"
      },
      "t_bytes32": {
        "encoding": "inplace",
        "label": "bytes32",
        "numberOfBytes": "32"
      },
      "t_contract(ICollection)6406": {
        "encoding": "inplace",
        "label": "contract ICollection",
        "numberOfBytes": "20"
      },
      "t_enum(HeroEdition)4527": {
        "encoding": "inplace",
        "label": "enum CryptoKombatMixer.HeroEdition",
        "numberOfBytes": "1"
      },
      "t_mapping(t_bytes32,t_struct(MixRequest)4536_storage)": {
        "encoding": "mapping",
        "key": "t_bytes32",
        "label": "mapping(bytes32 => struct CryptoKombatMixer.MixRequest)",
        "numberOfBytes": "32",
        "value": "t_struct(MixRequest)4536_storage"
      },
      "t_mapping(t_enum(HeroEdition)4527,t_array(t_uint256)dyn_storage)": {
        "encoding": "mapping",
        "key": "t_enum(HeroEdition)4527",
        "label": "mapping(enum CryptoKombatMixer.HeroEdition => uint256[])",
        "numberOfBytes": "32",
        "value": "t_array(t_uint256)dyn_storage"
      },
      "t_mapping(t_enum(HeroEdition)4527,t_mapping(t_enum(HeroEdition)4527,t_uint256))": {
        "encoding": "mapping",
        "key": "t_enum(HeroEdition)4527",
        "label": "mapping(enum CryptoKombatMixer.HeroEdition => mapping(enum CryptoKombatMixer.HeroEdition => uint256))",
        "numberOfBytes": "32",
        "value": "t_mapping(t_enum(HeroEdition)4527,t_uint256)"
      },
      "t_mapping(t_enum(HeroEdition)4527,t_uint256)": {
        "encoding": "mapping",
        "key": "t_enum(HeroEdition)4527",
        "label": "mapping(enum CryptoKombatMixer.HeroEdition => uint256)",
        "numberOfBytes": "32",
        "value": "t_uint256"
      },
      "t_mapping(t_uint256,t_enum(HeroEdition)4527)": {
        "encoding": "mapping",
        "key": "t_uint256",
        "label": "mapping(uint256 => enum CryptoKombatMixer.HeroEdition)",
        "numberOfBytes": "32",
        "value": "t_enum(HeroEdition)4527"
      },
      "t_struct(MixRequest)4536_storage": {
        "encoding": "inplace",
        "label": "struct CryptoKombatMixer.MixRequest",
        "members": [
          {
            "astId": 4529,
            "contract": "contracts/CryptoKombatMixer.sol:CryptoKombatMixer",
            "label": "account",
            "offset": 0,
            "slot": "0",
            "type": "t_address"
          },
          {
            "astId": 4532,
            "contract": "contracts/CryptoKombatMixer.sol:CryptoKombatMixer",
            "label": "editionIn",
            "offset": 20,
            "slot": "0",
            "type": "t_enum(HeroEdition)4527"
          },
          {
            "astId": 4535,
            "contract": "contracts/CryptoKombatMixer.sol:CryptoKombatMixer",
            "label": "inIds",
            "offset": 0,
            "slot": "1",
            "type": "t_array(t_uint256)dyn_storage"
          }
        ],
        "numberOfBytes": "64"
      },
      "t_uint256": {
        "encoding": "inplace",
        "label": "uint256",
        "numberOfBytes": "32"
      }
    }
  }
}