{
  "address": "0x8914dC1E2Bdb599868A8e25b357E4e25d04b42b2",
  "abi": [
    {
      "inputs": [
        {
          "internalType": "address",
          "name": "coordinator_",
          "type": "address"
        },
        {
          "internalType": "address",
          "name": "link_",
          "type": "address"
        },
        {
          "internalType": "uint256",
          "name": "chainlinkFee_",
          "type": "uint256"
        },
        {
          "internalType": "bytes32",
          "name": "keyHash_",
          "type": "bytes32"
        },
        {
          "internalType": "address",
          "name": "collection_",
          "type": "address"
        }
      ],
      "stateMutability": "nonpayable",
      "type": "constructor"
    },
    {
      "anonymous": false,
      "inputs": [
        {
          "indexed": true,
          "internalType": "enum CryptoKombatMixer.HeroEdition",
          "name": "edition",
          "type": "uint8"
        },
        {
          "indexed": true,
          "internalType": "uint256",
          "name": "id",
          "type": "uint256"
        }
      ],
      "name": "EditionToIdMappingAdded",
      "type": "event"
    },
    {
      "anonymous": false,
      "inputs": [
        {
          "indexed": true,
          "internalType": "enum CryptoKombatMixer.HeroEdition",
          "name": "edition",
          "type": "uint8"
        },
        {
          "indexed": true,
          "internalType": "uint256[]",
          "name": "ids",
          "type": "uint256[]"
        }
      ],
      "name": "EditionToIdMappingSet",
      "type": "event"
    },
    {
      "anonymous": false,
      "inputs": [
        {
          "indexed": true,
          "internalType": "address",
          "name": "account",
          "type": "address"
        },
        {
          "indexed": true,
          "internalType": "bytes32",
          "name": "requestId",
          "type": "bytes32"
        },
        {
          "indexed": false,
          "internalType": "enum CryptoKombatMixer.HeroEdition",
          "name": "editionIn",
          "type": "uint8"
        }
      ],
      "name": "HeroesMixReverted",
      "type": "event"
    },
    {
      "anonymous": false,
      "inputs": [
        {
          "indexed": true,
          "internalType": "address",
          "name": "account",
          "type": "address"
        },
        {
          "indexed": true,
          "internalType": "bytes32",
          "name": "requestId",
          "type": "bytes32"
        },
        {
          "indexed": false,
          "internalType": "enum CryptoKombatMixer.HeroEdition",
          "name": "editionIn",
          "type": "uint8"
        },
        {
          "indexed": false,
          "internalType": "enum CryptoKombatMixer.HeroEdition",
          "name": "editionOut",
          "type": "uint8"
        },
        {
          "indexed": false,
          "internalType": "uint256",
          "name": "tokenId",
          "type": "uint256"
        }
      ],
      "name": "HeroesMixSuceess",
      "type": "event"
    },
    {
      "anonymous": false,
      "inputs": [
        {
          "indexed": true,
          "internalType": "address",
          "name": "account",
          "type": "address"
        },
        {
          "indexed": true,
          "internalType": "bytes32",
          "name": "requestId",
          "type": "bytes32"
        }
      ],
      "name": "MixRequested",
      "type": "event"
    },
    {
      "anonymous": false,
      "inputs": [
        {
          "indexed": true,
          "internalType": "enum CryptoKombatMixer.HeroEdition",
          "name": "editionIn",
          "type": "uint8"
        },
        {
          "indexed": true,
          "internalType": "enum CryptoKombatMixer.HeroEdition[]",
          "name": "editionsOut",
          "type": "uint8[]"
        },
        {
          "indexed": true,
          "internalType": "uint256[]",
          "name": "chances",
          "type": "uint256[]"
        }
      ],
      "name": "MixerConfigSet",
      "type": "event"
    },
    {
      "anonymous": false,
      "inputs": [
        {
          "indexed": true,
          "internalType": "address",
          "name": "previousOwner",
          "type": "address"
        },
        {
          "indexed": true,
          "internalType": "address",
          "name": "newOwner",
          "type": "address"
        }
      ],
      "name": "OwnershipTransferred",
      "type": "event"
    },
    {
      "inputs": [
        {
          "internalType": "enum CryptoKombatMixer.HeroEdition",
          "name": "_edition",
          "type": "uint8"
        },
        {
          "internalType": "uint256",
          "name": "_id",
          "type": "uint256"
        }
      ],
      "name": "addEditionToIdMapping",
      "outputs": [],
      "stateMutability": "nonpayable",
      "type": "function"
    },
    {
      "inputs": [],
      "name": "burnAllHeroes",
      "outputs": [],
      "stateMutability": "nonpayable",
      "type": "function"
    },
    {
      "inputs": [
        {
          "internalType": "uint256[]",
          "name": "_ids",
          "type": "uint256[]"
        }
      ],
      "name": "burnHeroesBatch",
      "outputs": [],
      "stateMutability": "nonpayable",
      "type": "function"
    },
    {
      "inputs": [],
      "name": "chainlinkFee",
      "outputs": [
        {
          "internalType": "uint256",
          "name": "",
          "type": "uint256"
        }
      ],
      "stateMutability": "view",
      "type": "function"
    },
    {
      "inputs": [],
      "name": "collection",
      "outputs": [
        {
          "internalType": "contract ICollection",
          "name": "",
          "type": "address"
        }
      ],
      "stateMutability": "view",
      "type": "function"
    },
    {
      "inputs": [
        {
          "internalType": "enum CryptoKombatMixer.HeroEdition",
          "name": "",
          "type": "uint8"
        },
        {
          "internalType": "uint256",
          "name": "",
          "type": "uint256"
        }
      ],
      "name": "editionToHeroIds",
      "outputs": [
        {
          "internalType": "uint256",
          "name": "",
          "type": "uint256"
        }
      ],
      "stateMutability": "view",
      "type": "function"
    },
    {
      "inputs": [
        {
          "internalType": "uint256",
          "name": "",
          "type": "uint256"
        }
      ],
      "name": "heroIdToEdition",
      "outputs": [
        {
          "internalType": "enum CryptoKombatMixer.HeroEdition",
          "name": "",
          "type": "uint8"
        }
      ],
      "stateMutability": "view",
      "type": "function"
    },
    {
      "inputs": [
        {
          "internalType": "uint256[]",
          "name": "_ids",
          "type": "uint256[]"
        }
      ],
      "name": "mixHeroes",
      "outputs": [],
      "stateMutability": "nonpayable",
      "type": "function"
    },
    {
      "inputs": [
        {
          "internalType": "bytes32",
          "name": "",
          "type": "bytes32"
        }
      ],
      "name": "mixRequests",
      "outputs": [
        {
          "internalType": "address",
          "name": "account",
          "type": "address"
        },
        {
          "internalType": "enum CryptoKombatMixer.HeroEdition",
          "name": "editionIn",
          "type": "uint8"
        }
      ],
      "stateMutability": "view",
      "type": "function"
    },
    {
      "inputs": [
        {
          "internalType": "enum CryptoKombatMixer.HeroEdition",
          "name": "",
          "type": "uint8"
        },
        {
          "internalType": "enum CryptoKombatMixer.HeroEdition",
          "name": "",
          "type": "uint8"
        }
      ],
      "name": "mixerConfigs",
      "outputs": [
        {
          "internalType": "uint256",
          "name": "",
          "type": "uint256"
        }
      ],
      "stateMutability": "view",
      "type": "function"
    },
    {
      "inputs": [
        {
          "internalType": "address",
          "name": "",
          "type": "address"
        },
        {
          "internalType": "address",
          "name": "",
          "type": "address"
        },
        {
          "internalType": "uint256[]",
          "name": "",
          "type": "uint256[]"
        },
        {
          "internalType": "uint256[]",
          "name": "",
          "type": "uint256[]"
        },
        {
          "internalType": "bytes",
          "name": "",
          "type": "bytes"
        }
      ],
      "name": "onERC1155BatchReceived",
      "outputs": [
        {
          "internalType": "bytes4",
          "name": "",
          "type": "bytes4"
        }
      ],
      "stateMutability": "nonpayable",
      "type": "function"
    },
    {
      "inputs": [
        {
          "internalType": "address",
          "name": "",
          "type": "address"
        },
        {
          "internalType": "address",
          "name": "",
          "type": "address"
        },
        {
          "internalType": "uint256",
          "name": "",
          "type": "uint256"
        },
        {
          "internalType": "uint256",
          "name": "",
          "type": "uint256"
        },
        {
          "internalType": "bytes",
          "name": "",
          "type": "bytes"
        }
      ],
      "name": "onERC1155Received",
      "outputs": [
        {
          "internalType": "bytes4",
          "name": "",
          "type": "bytes4"
        }
      ],
      "stateMutability": "nonpayable",
      "type": "function"
    },
    {
      "inputs": [],
      "name": "owner",
      "outputs": [
        {
          "internalType": "address",
          "name": "",
          "type": "address"
        }
      ],
      "stateMutability": "view",
      "type": "function"
    },
    {
      "inputs": [
        {
          "internalType": "bytes32",
          "name": "requestId",
          "type": "bytes32"
        },
        {
          "internalType": "uint256",
          "name": "randomness",
          "type": "uint256"
        }
      ],
      "name": "rawFulfillRandomness",
      "outputs": [],
      "stateMutability": "nonpayable",
      "type": "function"
    },
    {
      "inputs": [],
      "name": "recoverAllHeroes",
      "outputs": [],
      "stateMutability": "nonpayable",
      "type": "function"
    },
    {
      "inputs": [
        {
          "internalType": "uint256[]",
          "name": "_ids",
          "type": "uint256[]"
        }
      ],
      "name": "recoverHeroes",
      "outputs": [],
      "stateMutability": "nonpayable",
      "type": "function"
    },
    {
      "inputs": [],
      "name": "renounceOwnership",
      "outputs": [],
      "stateMutability": "nonpayable",
      "type": "function"
    },
    {
      "inputs": [
        {
          "internalType": "enum CryptoKombatMixer.HeroEdition",
          "name": "_edition",
          "type": "uint8"
        },
        {
          "internalType": "uint256[]",
          "name": "_ids",
          "type": "uint256[]"
        }
      ],
      "name": "setEditionToIdMapping",
      "outputs": [],
      "stateMutability": "nonpayable",
      "type": "function"
    },
    {
      "inputs": [
        {
          "internalType": "enum CryptoKombatMixer.HeroEdition",
          "name": "_in",
          "type": "uint8"
        },
        {
          "internalType": "enum CryptoKombatMixer.HeroEdition[]",
          "name": "_out",
          "type": "uint8[]"
        },
        {
          "internalType": "uint256[]",
          "name": "_chances",
          "type": "uint256[]"
        }
      ],
      "name": "setMixerConfig",
      "outputs": [],
      "stateMutability": "nonpayable",
      "type": "function"
    },
    {
      "inputs": [
        {
          "internalType": "bytes4",
          "name": "interfaceId",
          "type": "bytes4"
        }
      ],
      "name": "supportsInterface",
      "outputs": [
        {
          "internalType": "bool",
          "name": "",
          "type": "bool"
        }
      ],
      "stateMutability": "view",
      "type": "function"
    },
    {
      "inputs": [
        {
          "internalType": "address",
          "name": "newOwner",
          "type": "address"
        }
      ],
      "name": "transferOwnership",
      "outputs": [],
      "stateMutability": "nonpayable",
      "type": "function"
    },
    {
      "inputs": [
        {
          "internalType": "uint256",
          "name": "value",
          "type": "uint256"
        }
      ],
      "name": "withdrawLink",
      "outputs": [],
      "stateMutability": "nonpayable",
      "type": "function"
    }
  ],
  "transactionHash": "0x9c038baea71c504d035773db0c34b7aecc23bc22031a878cb86746bc588b3667",
  "args": [
    "0xa555fC018435bef5A13C6c6870a9d4C11DEC329C",
    "0x84b9B910527Ad5C03A9Ca831909E21e236EA7b06",
    "100000000000000000",
    "0xcaf3c3727e033261d383b315559476f48034c13b18f8cafed4d871abe5049186",
    "0x611477c54F8f2dA620Ea0A3B44729929c6C91a27"
  ],
  "solcInputHash": "33fc6d853087f5029ab7cc86543f8b8a",
  "bytecode": "0x60c06040523480156200001157600080fd5b5060405162002eea38038062002eea83398101604081905262000034916200016a565b8484826200004233620000fd565b6001600160a01b038116620000b05760405162461bcd60e51b815260206004820152602a60248201527f43727970746f4b6f6d6261744d697865723a20436f6c6c656374696f6e207a65604482015269726f206164647265737360b01b606482015260840160405180910390fd5b600480546001600160a01b039092166001600160a01b03199092169190911790556001600160601b0319606092831b811660a052911b1660805250600991909155600a5550620001c79050565b600080546001600160a01b038381166001600160a01b0319831681178455604051919092169283917f8be0079c531659141344cd1fd0a4f28419497f9722a3daafe3b4186f6b6457e09190a35050565b80516001600160a01b03811681146200016557600080fd5b919050565b600080600080600060a0868803121562000182578081fd5b6200018d866200014d565b94506200019d602087016200014d565b93506040860151925060608601519150620001bb608087016200014d565b90509295509295909350565b60805160601c60a05160601c612ce26200020860003960008181610ae6015261198e01526000818161067e01528181610a53015261195f0152612ce26000f3fe608060405234801561001057600080fd5b50600436106101425760003560e01c80638da5cb5b116100b8578063bc197c811161007c578063bc197c81146102af578063bf39853a146102e7578063edc1bd1514610312578063f23a6e6114610355578063f2b15a4114610374578063f2fde38b1461037c57600080fd5b80638da5cb5b1461025257806394985ddd14610263578063a3a2581114610276578063a8d913ae14610289578063bace13351461029c57600080fd5b80636ec2a9441161010a5780636ec2a944146101cf578063715018a6146101e2578063774e54c8146101ea5780637a8042bd146101fd5780637ac98be1146102105780637de1e5361461022757600080fd5b806301ffc9a714610147578063335cea181461016f578063342057391461018457806354c023e31461018c57806357966eab146101bc575b600080fd5b61015a610155366004612620565b61038f565b60405190151581526020015b60405180910390f35b61018261017d366004612594565b6103c6565b005b610182610406565b6101af61019a3660046125e7565b60026020526000908152604090205460ff1681565b6040516101669190612a0f565b6101826101ca36600461271b565b61043b565b6101826101dd366004612594565b6105fc565b610182610632565b6101826101f8366004612594565b610666565b61018261020b3660046125e7565b610a0d565b61021960095481565b604051908152602001610166565b60045461023a906001600160a01b031681565b6040516001600160a01b039091168152602001610166565b6000546001600160a01b031661023a565b6101826102713660046125ff565b610adb565b610182610284366004612799565b610b5d565b610219610297366004612799565b610cbb565b6101826102aa366004612648565b610cec565b6102ce6102bd36600461248b565b63bc197c8160e01b95945050505050565b6040516001600160e01b03199091168152602001610166565b6102196102f5366004612767565b600160209081526000928352604080842090915290825290205481565b6103476103203660046125e7565b6007602052600090815260409020546001600160a01b03811690600160a01b900460ff1682565b60405161016692919061298b565b6102ce610363366004612531565b63f23a6e6160e01b95945050505050565b610182610fb4565b61018261038a36600461246a565b610fe9565b60006001600160e01b03198216630271189760e51b14806103c057506301ffc9a760e01b6001600160e01b03198316145b92915050565b6000546001600160a01b031633146103f95760405162461bcd60e51b81526004016103f090612a46565b60405180910390fd5b6104038133611081565b50565b6000546001600160a01b031633146104305760405162461bcd60e51b81526004016103f090612a46565b6104393361111b565b565b6000546001600160a01b031633146104655760405162461bcd60e51b81526004016103f090612a46565b600082600481111561048757634e487b7160e01b600052602160045260246000fd5b14156104a55760405162461bcd60e51b81526004016103f090612a7b565b60005b81518110156105325782600260008484815181106104d657634e487b7160e01b600052603260045260246000fd5b6020026020010151815260200190815260200160002060006101000a81548160ff0219169083600481111561051b57634e487b7160e01b600052602160045260246000fd5b02179055508061052a81612c45565b9150506104a8565b50806003600084600481111561055857634e487b7160e01b600052602160045260246000fd5b600481111561057757634e487b7160e01b600052602160045260246000fd5b815260200190815260200160002090805190602001906105989291906122eb565b50806040516105a791906128be565b60405180910390208260048111156105cf57634e487b7160e01b600052602160045260246000fd5b6040517f36aba613eb3694c3753a05bf3442ff022f6cb16e782bd9761a052dad2b599aec90600090a35050565b6000546001600160a01b031633146106265760405162461bcd60e51b81526004016103f090612a46565b6104038161dead611081565b6000546001600160a01b0316331461065c5760405162461bcd60e51b81526004016103f090612a46565b610439600061175d565b6009546040516370a0823160e01b81523060048201527f00000000000000000000000000000000000000000000000000000000000000006001600160a01b0316906370a082319060240160206040518083038186803b1580156106c857600080fd5b505afa1580156106dc573d6000803e3d6000fd5b505050506040513d601f19601f8201168201806040525081019061070091906127c2565b10156107595760405162461bcd60e51b815260206004820152602260248201527f43727970746f4b6f6d6261744d697865723a204e6f7420656e6f756768204c496044820152614e4b60f01b60648201526084016103f0565b80516003146107bc5760405162461bcd60e51b815260206004820152602960248201527f43727970746f4b6f6d6261744d697865723a20496e636f727265637420696e706044820152680eae840d8cadccee8d60bb1b60648201526084016103f0565b6107c5816117ad565b6108285760405162461bcd60e51b815260206004820152602e60248201527f43727970746f4b6f6d6261744d697865723a20496e7075742065646974696f6e60448201526d7320617265206e6f742073616d6560901b60648201526084016103f0565b60045481516001600160a01b0390911690632eb2c2d6903390309085906108509060016118b6565b6040518060400160405280600381526020016203078360ec1b8152506040518663ffffffff1660e01b815260040161088c9594939291906128e8565b600060405180830381600087803b1580156108a657600080fd5b505af11580156108ba573d6000803e3d6000fd5b5050505060006108ce600a5460095461195b565b90506040518060600160405280336001600160a01b03168152602001600260008560008151811061090f57634e487b7160e01b600052603260045260246000fd5b60209081029190910181015182528101919091526040016000205460ff16600481111561094c57634e487b7160e01b600052602160045260246000fd5b8152602090810184905260008381526007825260409020825181546001600160a01b039091166001600160a01b031982168117835592840151919283916001600160a81b03191617600160a01b8360048111156109b957634e487b7160e01b600052602160045260246000fd5b0217905550604082015180516109d99160018401916020909101906122eb565b505060405182915033907fe7c46debaef5a7b1120c52d0a106b71d796c5b6d2ed456c2728258d12a4279cd90600090a35050565b6000546001600160a01b03163314610a375760405162461bcd60e51b81526004016103f090612a46565b60405163a9059cbb60e01b8152336004820152602481018290527f00000000000000000000000000000000000000000000000000000000000000006001600160a01b03169063a9059cbb90604401602060405180830381600087803b158015610a9f57600080fd5b505af1158015610ab3573d6000803e3d6000fd5b505050506040513d601f19601f82011682018060405250810190610ad791906125c7565b5050565b336001600160a01b037f00000000000000000000000000000000000000000000000000000000000000001614610b535760405162461bcd60e51b815260206004820152601f60248201527f4f6e6c7920565246436f6f7264696e61746f722063616e2066756c66696c6c0060448201526064016103f0565b610ad78282611aee565b6000546001600160a01b03163314610b875760405162461bcd60e51b81526004016103f090612a46565b6000826004811115610ba957634e487b7160e01b600052602160045260246000fd5b1415610bc75760405162461bcd60e51b81526004016103f090612a7b565b6000818152600260205260409020805483919060ff19166001836004811115610c0057634e487b7160e01b600052602160045260246000fd5b021790555060036000836004811115610c2957634e487b7160e01b600052602160045260246000fd5b6004811115610c4857634e487b7160e01b600052602160045260246000fd5b8152602080820192909252604001600090812080546001810182559082529190200181905580826004811115610c8e57634e487b7160e01b600052602160045260246000fd5b6040517f5789842d8b93af6faed85ab793032aa86657a55244b60959791ca8adf2fc70ab90600090a35050565b60036020528160005260406000208181548110610cd757600080fd5b90600052602060002001600091509150505481565b6000546001600160a01b03163314610d165760405162461bcd60e51b81526004016103f090612a46565b8051825114610d795760405162461bcd60e51b815260206004820152602960248201527f43727970746f4b6f6d6261744d697865723a20506172616d73206c656e677468604482015268040dad2e6dac2e8c6d60bb1b60648201526084016103f0565b6000805b8251811015610ebf57828181518110610da657634e487b7160e01b600052603260045260246000fd5b602002602001015182610db99190612b23565b9150828181518110610ddb57634e487b7160e01b600052603260045260246000fd5b602002602001015160016000876004811115610e0757634e487b7160e01b600052602160045260246000fd5b6004811115610e2657634e487b7160e01b600052602160045260246000fd5b81526020019081526020016000206000868481518110610e5657634e487b7160e01b600052603260045260246000fd5b60200260200101516004811115610e7d57634e487b7160e01b600052602160045260246000fd5b6004811115610e9c57634e487b7160e01b600052602160045260246000fd5b815260208101919091526040016000205580610eb781612c45565b915050610d7d565b50610ecc6003600a612b7e565b610ed7906064612c26565b811115610f395760405162461bcd60e51b815260206004820152602a60248201527f43727970746f4b6f6d6261744d697865723a204368616e6365732073756d20656044820152697863656564203130302560b01b60648201526084016103f0565b81604051610f4791906128be565b604051809103902083604051610f5d9190612881565b6040518091039020856004811115610f8557634e487b7160e01b600052602160045260246000fd5b6040517f94255ac2323f7bbf8e1d32727a195533d9cd12672fd19507756f10391251356d90600090a450505050565b6000546001600160a01b03163314610fde5760405162461bcd60e51b81526004016103f090612a46565b61043961dead61111b565b6000546001600160a01b031633146110135760405162461bcd60e51b81526004016103f090612a46565b6001600160a01b0381166110785760405162461bcd60e51b815260206004820152602660248201527f4f776e61626c653a206e6577206f776e657220697320746865207a65726f206160448201526564647265737360d01b60648201526084016103f0565b6104038161175d565b60045482516001600160a01b0390911690632eb2c2d6903090849086906110a99060016118b6565b6040518060400160405280600381526020016203078360ec1b8152506040518663ffffffff1660e01b81526004016110e59594939291906128e8565b600060405180830381600087803b1580156110ff57600080fd5b505af1158015611113573d6000803e3d6000fd5b505050505050565b60046000908152600360209081527f83ec6a1f0257b830b5e016457c9cf1435391bf56cc98f369a58a54fe93772465805460408051828502810185019091528181529283018282801561118d57602002820191906000526020600020905b815481526020019060010190808311611179575b5050505050905060005b81518110156113305760045482516000916001600160a01b03169062fdd58e9030908690869081106111d957634e487b7160e01b600052603260045260246000fd5b60200260200101516040518363ffffffff1660e01b81526004016112129291906001600160a01b03929092168252602082015260400190565b60206040518083038186803b15801561122a57600080fd5b505afa15801561123e573d6000803e3d6000fd5b505050506040513d601f19601f8201168201806040525081019061126291906127c2565b9050801561131d5760045483516001600160a01b039091169063f242432a90309087908790879081106112a557634e487b7160e01b600052603260045260246000fd5b6020026020010151856040518060400160405280600381526020016203078360ec1b8152506040518663ffffffff1660e01b81526004016112ea959493929190612946565b600060405180830381600087803b15801561130457600080fd5b505af1158015611318573d6000803e3d6000fd5b505050505b508061132881612c45565b915050611197565b506003600081905260209081527fcbc4e5fb02c3d1de23a9f1e014b4d2ee5aeaea9505df5e855c9210bf472495af80546040805182850281018501909152818152928301828280156113a157602002820191906000526020600020905b81548152602001906001019080831161138d575b5050505050905060005b81518110156115445760045482516000916001600160a01b03169062fdd58e9030908690869081106113ed57634e487b7160e01b600052603260045260246000fd5b60200260200101516040518363ffffffff1660e01b81526004016114269291906001600160a01b03929092168252602082015260400190565b60206040518083038186803b15801561143e57600080fd5b505afa158015611452573d6000803e3d6000fd5b505050506040513d601f19601f8201168201806040525081019061147691906127c2565b905080156115315760045483516001600160a01b039091169063f242432a90309087908790879081106114b957634e487b7160e01b600052603260045260246000fd5b6020026020010151856040518060400160405280600381526020016203078360ec1b8152506040518663ffffffff1660e01b81526004016114fe959493929190612946565b600060405180830381600087803b15801561151857600080fd5b505af115801561152c573d6000803e3d6000fd5b505050505b508061153c81612c45565b9150506113ab565b506002600052600360209081527fc3a24b0501bd2c13a7e57f2db4369ec4c223447539fc0724a9d55ac4a06ebd4d80546040805182850281018501909152818152928301828280156115b557602002820191906000526020600020905b8154815260200190600101908083116115a1575b5050505050905060005b81518110156117585760045482516000916001600160a01b03169062fdd58e90309086908690811061160157634e487b7160e01b600052603260045260246000fd5b60200260200101516040518363ffffffff1660e01b815260040161163a9291906001600160a01b03929092168252602082015260400190565b60206040518083038186803b15801561165257600080fd5b505afa158015611666573d6000803e3d6000fd5b505050506040513d601f19601f8201168201806040525081019061168a91906127c2565b905080156117455760045483516001600160a01b039091169063f242432a90309087908790879081106116cd57634e487b7160e01b600052603260045260246000fd5b6020026020010151856040518060400160405280600381526020016203078360ec1b8152506040518663ffffffff1660e01b8152600401611712959493929190612946565b600060405180830381600087803b15801561172c57600080fd5b505af1158015611740573d6000803e3d6000fd5b505050505b508061175081612c45565b9150506115bf565b505050565b600080546001600160a01b038381166001600160a01b0319831681178455604051919092169283917f8be0079c531659141344cd1fd0a4f28419497f9722a3daafe3b4186f6b6457e09190a35050565b60008060026000846000815181106117d557634e487b7160e01b600052603260045260246000fd5b60209081029190910181015182528101919091526040016000205460ff16905060015b83518110156118ac576000600260008660008151811061182857634e487b7160e01b600052603260045260246000fd5b60209081029190910181015182528101919091526040016000205460ff16905080600481111561186857634e487b7160e01b600052602160045260246000fd5b83600481111561188857634e487b7160e01b600052602160045260246000fd5b1461189857506000949350505050565b9150806118a481612c45565b9150506117f8565b5060019392505050565b60608267ffffffffffffffff8111156118df57634e487b7160e01b600052604160045260246000fd5b604051908082528060200260200182016040528015611908578160200160208202803683370190505b50905060005b83811015611954578282828151811061193757634e487b7160e01b600052603260045260246000fd5b60209081029190910101528061194c81612c45565b91505061190e565b5092915050565b60007f00000000000000000000000000000000000000000000000000000000000000006001600160a01b0316634000aea07f0000000000000000000000000000000000000000000000000000000000000000848660006040516020016119cb929190918252602082015260400190565b6040516020818303038152906040526040518463ffffffff1660e01b81526004016119f8939291906129a8565b602060405180830381600087803b158015611a1257600080fd5b505af1158015611a26573d6000803e3d6000fd5b505050506040513d601f19601f82011682018060405250810190611a4a91906125c7565b50600083815260086020818152604080842054815180840189905280830186905230606082015260808082018390528351808303909101815260a090910190925281519183019190912093879052919052611aa6906001612b23565b600085815260086020526040902055611ae68482604080516020808201949094528082019290925280518083038201815260609092019052805191012090565b949350505050565b610ad78282600082815260076020908152604080832081516060810190925280546001600160a01b03811683529192909190830190600160a01b900460ff166004811115611b4c57634e487b7160e01b600052602160045260246000fd5b6004811115611b6b57634e487b7160e01b600052602160045260246000fd5b815260200160018201805480602002602001604051908101604052809291908181526020018280548015611bbe57602002820191906000526020600020905b815481526020019060010190808311611baa575b505050505081525050905060006003600a611bd99190612b7e565b611be4906064612c26565b611bee9084612c60565b905060006001600084602001516004811115611c1a57634e487b7160e01b600052602160045260246000fd5b6004811115611c3957634e487b7160e01b600052602160045260246000fd5b8152602001908152602001600020600060026004811115611c6a57634e487b7160e01b600052602160045260246000fd5b6004811115611c8957634e487b7160e01b600052602160045260246000fd5b815260200190815260200160002054905060006001600085602001516004811115611cc457634e487b7160e01b600052602160045260246000fd5b6004811115611ce357634e487b7160e01b600052602160045260246000fd5b8152602001908152602001600020600060036004811115611d1457634e487b7160e01b600052602160045260246000fd5b6004811115611d3357634e487b7160e01b600052602160045260246000fd5b81526020019081526020016000205490506000828411611d5557506002611d75565b8284118015611d645750818411155b15611d7157506003611d75565b5060045b6000611d818288611f77565b90508015611e5b57600480548751604080518082018252600381526203078360ec1b6020820152905163731133e960e01b81526001600160a01b039093169363731133e993611dd693928792600192016129d8565b600060405180830381600087803b158015611df057600080fd5b505af1158015611e04573d6000803e3d6000fd5b505050508786600001516001600160a01b03167f383137ba3994fdb5820b4488eb30c894e8d0b1b27f7dd4f7cf6d2adddb9b512188602001518585604051611e4e93929190612a1d565b60405180910390a3611f41565b6004548651604088015180516001600160a01b0390931692632eb2c2d69230929091611e889060016118b6565b6040518060400160405280600381526020016203078360ec1b8152506040518663ffffffff1660e01b8152600401611ec49594939291906128e8565b600060405180830381600087803b158015611ede57600080fd5b505af1158015611ef2573d6000803e3d6000fd5b505050508786600001516001600160a01b03167f666e8c3b80992ccf45eb0ff41e79ac6bec6ccdb4b4df641cf1c4778b5c1dce708860200151604051611f389190612a0f565b60405180910390a35b600088815260076020526040812080546001600160a81b031916815590611f6b6001830182612336565b50505050505050505050565b600080611fd78360036000876004811115611fa257634e487b7160e01b600052602160045260246000fd5b6004811115611fc157634e487b7160e01b600052602160045260246000fd5b8152602081019190915260400160002054612221565b905060015b81518110156122165760006003600087600481111561200b57634e487b7160e01b600052602160045260246000fd5b600481111561202a57634e487b7160e01b600052602160045260246000fd5b81526020019081526020016000208054905083838151811061205c57634e487b7160e01b600052603260045260246000fd5b602002602001015161206e9190612c60565b90506003600087600481111561209457634e487b7160e01b600052602160045260246000fd5b60048111156120b357634e487b7160e01b600052602160045260246000fd5b815260200190815260200160002081815481106120e057634e487b7160e01b600052603260045260246000fd5b600091825260209091200154600480546040516321a7dd6560e21b81529296506001600160a01b03169163869f7594916121209188910190815260200190565b60206040518083038186803b15801561213857600080fd5b505afa15801561214c573d6000803e3d6000fd5b505050506040513d601f19601f8201168201806040525081019061217091906127c2565b6004805460405163bd85b03960e01b81529182018790526001600160a01b03169063bd85b0399060240160206040518083038186803b1580156121b257600080fd5b505afa1580156121c6573d6000803e3d6000fd5b505050506040513d601f19601f820116820180604052508101906121ea91906127c2565b6121f5906001612b23565b1015612203575050506103c0565b508061220e81612c45565b915050611fdc565b506000949350505050565b60608167ffffffffffffffff81111561224a57634e487b7160e01b600052604160045260246000fd5b604051908082528060200260200182016040528015612273578160200160208202803683370190505b50905060005b828110156119545760408051602081018690529081018290526060016040516020818303038152906040528051906020012060001c8282815181106122ce57634e487b7160e01b600052603260045260246000fd5b6020908102919091010152806122e381612c45565b915050612279565b828054828255906000526020600020908101928215612326579160200282015b8281111561232657825182559160200191906001019061230b565b50612332929150612350565b5090565b508054600082559060005260206000209081019061040391905b5b808211156123325760008155600101612351565b80356001600160a01b038116811461237c57600080fd5b919050565b600082601f830112612391578081fd5b813560206123a66123a183612aff565b612ace565b80838252828201915082860187848660051b89010111156123c5578586fd5b855b858110156123e3578135845292840192908401906001016123c7565b5090979650505050505050565b600082601f830112612400578081fd5b813567ffffffffffffffff81111561241a5761241a612c96565b61242d601f8201601f1916602001612ace565b818152846020838601011115612441578283fd5b816020850160208301379081016020019190915292915050565b80356005811061237c57600080fd5b60006020828403121561247b578081fd5b61248482612365565b9392505050565b600080600080600060a086880312156124a2578081fd5b6124ab86612365565b94506124b960208701612365565b9350604086013567ffffffffffffffff808211156124d5578283fd5b6124e189838a01612381565b945060608801359150808211156124f6578283fd5b61250289838a01612381565b93506080880135915080821115612517578283fd5b50612524888289016123f0565b9150509295509295909350565b600080600080600060a08688031215612548578081fd5b61255186612365565b945061255f60208701612365565b93506040860135925060608601359150608086013567ffffffffffffffff811115612588578182fd5b612524888289016123f0565b6000602082840312156125a5578081fd5b813567ffffffffffffffff8111156125bb578182fd5b611ae684828501612381565b6000602082840312156125d8578081fd5b81518015158114612484578182fd5b6000602082840312156125f8578081fd5b5035919050565b60008060408385031215612611578182fd5b50508035926020909101359150565b600060208284031215612631578081fd5b81356001600160e01b031981168114612484578182fd5b60008060006060848603121561265c578283fd5b6126658461245b565b925060208085013567ffffffffffffffff80821115612682578485fd5b818701915087601f830112612695578485fd5b81356126a36123a182612aff565b8082825285820191508585018b878560051b88010111156126c2578889fd5b8895505b838610156126eb576126d78161245b565b8352600195909501949186019186016126c6565b50965050506040870135925080831115612703578384fd5b505061271186828701612381565b9150509250925092565b6000806040838503121561272d578081fd5b6127368361245b565b9150602083013567ffffffffffffffff811115612751578182fd5b61275d85828601612381565b9150509250929050565b60008060408385031215612779578182fd5b6127828361245b565b91506127906020840161245b565b90509250929050565b600080604083850312156127ab578182fd5b6127b48361245b565b946020939093013593505050565b6000602082840312156127d3578081fd5b5051919050565b6000815180845260208085019450808401835b83811015612809578151875295820195908201906001016127ed565b509495945050505050565b60008151808452815b818110156128395760208185018101518683018201520161281d565b8181111561284a5782602083870101525b50601f01601f19169290920160200192915050565b6005811061287d57634e487b7160e01b600052602160045260246000fd5b9052565b815160009082906020808601845b838110156128b2576128a285835161285f565b938201939082019060010161288f565b50929695505050505050565b815160009082906020808601845b838110156128b2578151855293820193908201906001016128cc565b6001600160a01b0386811682528516602082015260a060408201819052600090612914908301866127da565b828103606084015261292681866127da565b9050828103608084015261293a8185612814565b98975050505050505050565b6001600160a01b03868116825285166020820152604081018490526060810183905260a06080820181905260009061298090830184612814565b979650505050505050565b6001600160a01b038316815260408101612484602083018461285f565b60018060a01b03841681528260208201526060604082015260006129cf6060830184612814565b95945050505050565b60018060a01b0385168152836020820152826040820152608060608201526000612a056080830184612814565b9695505050505050565b602081016103c0828461285f565b60608101612a2b828661285f565b612a38602083018561285f565b826040830152949350505050565b6020808252818101527f4f776e61626c653a2063616c6c6572206973206e6f7420746865206f776e6572604082015260600190565b60208082526033908201527f43727970746f4b6f6d6261744d697865723a2043616e6e6f742073657420696460408201527239903337b91022a6a82a2c9032b234ba34b7b760691b606082015260800190565b604051601f8201601f1916810167ffffffffffffffff81118282101715612af757612af7612c96565b604052919050565b600067ffffffffffffffff821115612b1957612b19612c96565b5060051b60200190565b60008219821115612b3657612b36612c80565b500190565b600181815b80851115612b76578160001904821115612b5c57612b5c612c80565b80851615612b6957918102915b93841c9390800290612b40565b509250929050565b60006124848383600082612b94575060016103c0565b81612ba1575060006103c0565b8160018114612bb75760028114612bc157612bdd565b60019150506103c0565b60ff841115612bd257612bd2612c80565b50506001821b6103c0565b5060208310610133831016604e8410600b8410161715612c00575081810a6103c0565b612c0a8383612b3b565b8060001904821115612c1e57612c1e612c80565b029392505050565b6000816000190483118215151615612c4057612c40612c80565b500290565b6000600019821415612c5957612c59612c80565b5060010190565b600082612c7b57634e487b7160e01b81526012600452602481fd5b500690565b634e487b7160e01b600052601160045260246000fd5b634e487b7160e01b600052604160045260246000fdfea2646970667358221220e6d017461d92f8828bfb70d63cf225c72ce2a90334a2c051895a402cfbe7510e64736f6c63430008040033",
  "devdoc": {
    "kind": "dev",
    "methods": {
      "owner()": {
        "details": "Returns the address of the current owner."
      },
      "renounceOwnership()": {
        "details": "Leaves the contract without owner. It will not be possible to call `onlyOwner` functions anymore. Can only be called by the current owner. NOTE: Renouncing ownership will leave the contract without an owner, thereby removing any functionality that is only available to the owner."
      },
      "supportsInterface(bytes4)": {
        "details": "See {IERC165-supportsInterface}."
      },
      "transferOwnership(address)": {
        "details": "Transfers ownership of the contract to a new account (`newOwner`). Can only be called by the current owner."
      }
    },
    "version": 1
  },
  "userdoc": {
    "kind": "user",
    "methods": {},
    "version": 1
  },
  "storageLayout": {
    "storage": [
      {
        "astId": 857,
        "contract": "contracts/CryptoKombatMixerVRF.sol:CryptoKombatMixerVRF",
        "label": "_owner",
        "offset": 0,
        "slot": "0",
        "type": "t_address"
      },
      {
        "astId": 4544,
        "contract": "contracts/CryptoKombatMixerVRF.sol:CryptoKombatMixerVRF",
        "label": "mixerConfigs",
        "offset": 0,
        "slot": "1",
        "type": "t_mapping(t_enum(HeroEdition)4527,t_mapping(t_enum(HeroEdition)4527,t_uint256))"
      },
      {
        "astId": 4549,
        "contract": "contracts/CryptoKombatMixerVRF.sol:CryptoKombatMixerVRF",
        "label": "heroIdToEdition",
        "offset": 0,
        "slot": "2",
        "type": "t_mapping(t_uint256,t_enum(HeroEdition)4527)"
      },
      {
        "astId": 4555,
        "contract": "contracts/CryptoKombatMixerVRF.sol:CryptoKombatMixerVRF",
        "label": "editionToHeroIds",
        "offset": 0,
        "slot": "3",
        "type": "t_mapping(t_enum(HeroEdition)4527,t_array(t_uint256)dyn_storage)"
      },
      {
        "astId": 4558,
        "contract": "contracts/CryptoKombatMixerVRF.sol:CryptoKombatMixerVRF",
        "label": "collection",
        "offset": 0,
        "slot": "4",
        "type": "t_contract(ICollection)6406"
      },
      {
        "astId": 4573,
        "contract": "contracts/CryptoKombatMixerVRF.sol:CryptoKombatMixerVRF",
        "label": "randomNonce",
        "offset": 0,
        "slot": "5",
        "type": "t_uint256"
      },
      {
        "astId": 4575,
        "contract": "contracts/CryptoKombatMixerVRF.sol:CryptoKombatMixerVRF",
        "label": "mixRequestId",
        "offset": 0,
        "slot": "6",
        "type": "t_uint256"
      },
      {
        "astId": 4580,
        "contract": "contracts/CryptoKombatMixerVRF.sol:CryptoKombatMixerVRF",
        "label": "mixRequests",
        "offset": 0,
        "slot": "7",
        "type": "t_mapping(t_bytes32,t_struct(MixRequest)4536_storage)"
      },
      {
        "astId": 79,
        "contract": "contracts/CryptoKombatMixerVRF.sol:CryptoKombatMixerVRF",
        "label": "nonces",
        "offset": 0,
        "slot": "8",
        "type": "t_mapping(t_bytes32,t_uint256)"
      },
      {
        "astId": 5555,
        "contract": "contracts/CryptoKombatMixerVRF.sol:CryptoKombatMixerVRF",
        "label": "chainlinkFee",
        "offset": 0,
        "slot": "9",
        "type": "t_uint256"
      },
      {
        "astId": 5557,
        "contract": "contracts/CryptoKombatMixerVRF.sol:CryptoKombatMixerVRF",
        "label": "keyHash",
        "offset": 0,
        "slot": "10",
        "type": "t_bytes32"
      }
    ],
    "types": {
      "t_address": {
        "encoding": "inplace",
        "label": "address",
        "numberOfBytes": "20"
      },
      "t_array(t_uint256)dyn_storage": {
        "base": "t_uint256",
        "encoding": "dynamic_array",
        "label": "uint256[]",
        "numberOfBytes": "32"
      },
      "t_bytes32": {
        "encoding": "inplace",
        "label": "bytes32",
        "numberOfBytes": "32"
      },
      "t_contract(ICollection)6406": {
        "encoding": "inplace",
        "label": "contract ICollection",
        "numberOfBytes": "20"
      },
      "t_enum(HeroEdition)4527": {
        "encoding": "inplace",
        "label": "enum CryptoKombatMixer.HeroEdition",
        "numberOfBytes": "1"
      },
      "t_mapping(t_bytes32,t_struct(MixRequest)4536_storage)": {
        "encoding": "mapping",
        "key": "t_bytes32",
        "label": "mapping(bytes32 => struct CryptoKombatMixer.MixRequest)",
        "numberOfBytes": "32",
        "value": "t_struct(MixRequest)4536_storage"
      },
      "t_mapping(t_bytes32,t_uint256)": {
        "encoding": "mapping",
        "key": "t_bytes32",
        "label": "mapping(bytes32 => uint256)",
        "numberOfBytes": "32",
        "value": "t_uint256"
      },
      "t_mapping(t_enum(HeroEdition)4527,t_array(t_uint256)dyn_storage)": {
        "encoding": "mapping",
        "key": "t_enum(HeroEdition)4527",
        "label": "mapping(enum CryptoKombatMixer.HeroEdition => uint256[])",
        "numberOfBytes": "32",
        "value": "t_array(t_uint256)dyn_storage"
      },
      "t_mapping(t_enum(HeroEdition)4527,t_mapping(t_enum(HeroEdition)4527,t_uint256))": {
        "encoding": "mapping",
        "key": "t_enum(HeroEdition)4527",
        "label": "mapping(enum CryptoKombatMixer.HeroEdition => mapping(enum CryptoKombatMixer.HeroEdition => uint256))",
        "numberOfBytes": "32",
        "value": "t_mapping(t_enum(HeroEdition)4527,t_uint256)"
      },
      "t_mapping(t_enum(HeroEdition)4527,t_uint256)": {
        "encoding": "mapping",
        "key": "t_enum(HeroEdition)4527",
        "label": "mapping(enum CryptoKombatMixer.HeroEdition => uint256)",
        "numberOfBytes": "32",
        "value": "t_uint256"
      },
      "t_mapping(t_uint256,t_enum(HeroEdition)4527)": {
        "encoding": "mapping",
        "key": "t_uint256",
        "label": "mapping(uint256 => enum CryptoKombatMixer.HeroEdition)",
        "numberOfBytes": "32",
        "value": "t_enum(HeroEdition)4527"
      },
      "t_struct(MixRequest)4536_storage": {
        "encoding": "inplace",
        "label": "struct CryptoKombatMixer.MixRequest",
        "members": [
          {
            "astId": 4529,
            "contract": "contracts/CryptoKombatMixerVRF.sol:CryptoKombatMixerVRF",
            "label": "account",
            "offset": 0,
            "slot": "0",
            "type": "t_address"
          },
          {
            "astId": 4532,
            "contract": "contracts/CryptoKombatMixerVRF.sol:CryptoKombatMixerVRF",
            "label": "editionIn",
            "offset": 20,
            "slot": "0",
            "type": "t_enum(HeroEdition)4527"
          },
          {
            "astId": 4535,
            "contract": "contracts/CryptoKombatMixerVRF.sol:CryptoKombatMixerVRF",
            "label": "inIds",
            "offset": 0,
            "slot": "1",
            "type": "t_array(t_uint256)dyn_storage"
          }
        ],
        "numberOfBytes": "64"
      },
      "t_uint256": {
        "encoding": "inplace",
        "label": "uint256",
        "numberOfBytes": "32"
      }
    }
  }
}