{
  "address": "0x9e96d6047308E07C331C2EcB7Acb538A3AAD493a",
  "abi": [
    {
      "inputs": [
        {
          "internalType": "string",
          "name": "_baseUri",
          "type": "string"
        }
      ],
      "stateMutability": "nonpayable",
      "type": "constructor"
    },
    {
      "anonymous": false,
      "inputs": [
        {
          "indexed": true,
          "internalType": "address",
          "name": "account",
          "type": "address"
        },
        {
          "indexed": true,
          "internalType": "address",
          "name": "operator",
          "type": "address"
        },
        {
          "indexed": false,
          "internalType": "bool",
          "name": "approved",
          "type": "bool"
        }
      ],
      "name": "ApprovalForAll",
      "type": "event"
    },
    {
      "anonymous": false,
      "inputs": [
        {
          "indexed": true,
          "internalType": "address",
          "name": "previousOwner",
          "type": "address"
        },
        {
          "indexed": true,
          "internalType": "address",
          "name": "newOwner",
          "type": "address"
        }
      ],
      "name": "OwnershipTransferred",
      "type": "event"
    },
    {
      "anonymous": false,
      "inputs": [
        {
          "indexed": false,
          "internalType": "address",
          "name": "account",
          "type": "address"
        }
      ],
      "name": "Paused",
      "type": "event"
    },
    {
      "anonymous": false,
      "inputs": [
        {
          "indexed": true,
          "internalType": "bytes32",
          "name": "role",
          "type": "bytes32"
        },
        {
          "indexed": true,
          "internalType": "bytes32",
          "name": "previousAdminRole",
          "type": "bytes32"
        },
        {
          "indexed": true,
          "internalType": "bytes32",
          "name": "newAdminRole",
          "type": "bytes32"
        }
      ],
      "name": "RoleAdminChanged",
      "type": "event"
    },
    {
      "anonymous": false,
      "inputs": [
        {
          "indexed": true,
          "internalType": "bytes32",
          "name": "role",
          "type": "bytes32"
        },
        {
          "indexed": true,
          "internalType": "address",
          "name": "account",
          "type": "address"
        },
        {
          "indexed": true,
          "internalType": "address",
          "name": "sender",
          "type": "address"
        }
      ],
      "name": "RoleGranted",
      "type": "event"
    },
    {
      "anonymous": false,
      "inputs": [
        {
          "indexed": true,
          "internalType": "bytes32",
          "name": "role",
          "type": "bytes32"
        },
        {
          "indexed": true,
          "internalType": "address",
          "name": "account",
          "type": "address"
        },
        {
          "indexed": true,
          "internalType": "address",
          "name": "sender",
          "type": "address"
        }
      ],
      "name": "RoleRevoked",
      "type": "event"
    },
    {
      "anonymous": false,
      "inputs": [
        {
          "indexed": true,
          "internalType": "address",
          "name": "operator",
          "type": "address"
        },
        {
          "indexed": true,
          "internalType": "address",
          "name": "from",
          "type": "address"
        },
        {
          "indexed": true,
          "internalType": "address",
          "name": "to",
          "type": "address"
        },
        {
          "indexed": false,
          "internalType": "uint256[]",
          "name": "ids",
          "type": "uint256[]"
        },
        {
          "indexed": false,
          "internalType": "uint256[]",
          "name": "values",
          "type": "uint256[]"
        }
      ],
      "name": "TransferBatch",
      "type": "event"
    },
    {
      "anonymous": false,
      "inputs": [
        {
          "indexed": true,
          "internalType": "address",
          "name": "operator",
          "type": "address"
        },
        {
          "indexed": true,
          "internalType": "address",
          "name": "from",
          "type": "address"
        },
        {
          "indexed": true,
          "internalType": "address",
          "name": "to",
          "type": "address"
        },
        {
          "indexed": false,
          "internalType": "uint256",
          "name": "id",
          "type": "uint256"
        },
        {
          "indexed": false,
          "internalType": "uint256",
          "name": "value",
          "type": "uint256"
        }
      ],
      "name": "TransferSingle",
      "type": "event"
    },
    {
      "anonymous": false,
      "inputs": [
        {
          "indexed": false,
          "internalType": "string",
          "name": "value",
          "type": "string"
        },
        {
          "indexed": true,
          "internalType": "uint256",
          "name": "id",
          "type": "uint256"
        }
      ],
      "name": "URI",
      "type": "event"
    },
    {
      "anonymous": false,
      "inputs": [
        {
          "indexed": false,
          "internalType": "address",
          "name": "account",
          "type": "address"
        }
      ],
      "name": "Unpaused",
      "type": "event"
    },
    {
      "inputs": [],
      "name": "DEFAULT_ADMIN_ROLE",
      "outputs": [
        {
          "internalType": "bytes32",
          "name": "",
          "type": "bytes32"
        }
      ],
      "stateMutability": "view",
      "type": "function"
    },
    {
      "inputs": [],
      "name": "MINTER_ROLE",
      "outputs": [
        {
          "internalType": "bytes32",
          "name": "",
          "type": "bytes32"
        }
      ],
      "stateMutability": "view",
      "type": "function"
    },
    {
      "inputs": [],
      "name": "PAUSER_ROLE",
      "outputs": [
        {
          "internalType": "bytes32",
          "name": "",
          "type": "bytes32"
        }
      ],
      "stateMutability": "view",
      "type": "function"
    },
    {
      "inputs": [
        {
          "internalType": "address",
          "name": "account",
          "type": "address"
        },
        {
          "internalType": "uint256",
          "name": "id",
          "type": "uint256"
        }
      ],
      "name": "balanceOf",
      "outputs": [
        {
          "internalType": "uint256",
          "name": "",
          "type": "uint256"
        }
      ],
      "stateMutability": "view",
      "type": "function"
    },
    {
      "inputs": [
        {
          "internalType": "address[]",
          "name": "accounts",
          "type": "address[]"
        },
        {
          "internalType": "uint256[]",
          "name": "ids",
          "type": "uint256[]"
        }
      ],
      "name": "balanceOfBatch",
      "outputs": [
        {
          "internalType": "uint256[]",
          "name": "",
          "type": "uint256[]"
        }
      ],
      "stateMutability": "view",
      "type": "function"
    },
    {
      "inputs": [
        {
          "internalType": "address",
          "name": "account",
          "type": "address"
        },
        {
          "internalType": "uint256",
          "name": "id",
          "type": "uint256"
        },
        {
          "internalType": "uint256",
          "name": "value",
          "type": "uint256"
        }
      ],
      "name": "burn",
      "outputs": [],
      "stateMutability": "nonpayable",
      "type": "function"
    },
    {
      "inputs": [
        {
          "internalType": "address",
          "name": "account",
          "type": "address"
        },
        {
          "internalType": "uint256[]",
          "name": "ids",
          "type": "uint256[]"
        },
        {
          "internalType": "uint256[]",
          "name": "values",
          "type": "uint256[]"
        }
      ],
      "name": "burnBatch",
      "outputs": [],
      "stateMutability": "nonpayable",
      "type": "function"
    },
    {
      "inputs": [
        {
          "internalType": "uint256",
          "name": "_max",
          "type": "uint256"
        },
        {
          "internalType": "uint256",
          "name": "_initial",
          "type": "uint256"
        },
        {
          "internalType": "bytes",
          "name": "_data",
          "type": "bytes"
        }
      ],
      "name": "create",
      "outputs": [
        {
          "internalType": "uint256",
          "name": "tokenId",
          "type": "uint256"
        }
      ],
      "stateMutability": "nonpayable",
      "type": "function"
    },
    {
      "inputs": [
        {
          "internalType": "uint256[]",
          "name": "_maxs",
          "type": "uint256[]"
        },
        {
          "internalType": "uint256[]",
          "name": "_initials",
          "type": "uint256[]"
        },
        {
          "internalType": "bytes",
          "name": "_data",
          "type": "bytes"
        }
      ],
      "name": "createBatch",
      "outputs": [],
      "stateMutability": "nonpayable",
      "type": "function"
    },
    {
      "inputs": [
        {
          "internalType": "uint256",
          "name": "",
          "type": "uint256"
        }
      ],
      "name": "creators",
      "outputs": [
        {
          "internalType": "address",
          "name": "",
          "type": "address"
        }
      ],
      "stateMutability": "view",
      "type": "function"
    },
    {
      "inputs": [
        {
          "internalType": "bytes32",
          "name": "role",
          "type": "bytes32"
        }
      ],
      "name": "getRoleAdmin",
      "outputs": [
        {
          "internalType": "bytes32",
          "name": "",
          "type": "bytes32"
        }
      ],
      "stateMutability": "view",
      "type": "function"
    },
    {
      "inputs": [
        {
          "internalType": "bytes32",
          "name": "role",
          "type": "bytes32"
        },
        {
          "internalType": "uint256",
          "name": "index",
          "type": "uint256"
        }
      ],
      "name": "getRoleMember",
      "outputs": [
        {
          "internalType": "address",
          "name": "",
          "type": "address"
        }
      ],
      "stateMutability": "view",
      "type": "function"
    },
    {
      "inputs": [
        {
          "internalType": "bytes32",
          "name": "role",
          "type": "bytes32"
        }
      ],
      "name": "getRoleMemberCount",
      "outputs": [
        {
          "internalType": "uint256",
          "name": "",
          "type": "uint256"
        }
      ],
      "stateMutability": "view",
      "type": "function"
    },
    {
      "inputs": [
        {
          "internalType": "bytes32",
          "name": "role",
          "type": "bytes32"
        },
        {
          "internalType": "address",
          "name": "account",
          "type": "address"
        }
      ],
      "name": "grantRole",
      "outputs": [],
      "stateMutability": "nonpayable",
      "type": "function"
    },
    {
      "inputs": [
        {
          "internalType": "bytes32",
          "name": "role",
          "type": "bytes32"
        },
        {
          "internalType": "address",
          "name": "account",
          "type": "address"
        }
      ],
      "name": "hasRole",
      "outputs": [
        {
          "internalType": "bool",
          "name": "",
          "type": "bool"
        }
      ],
      "stateMutability": "view",
      "type": "function"
    },
    {
      "inputs": [
        {
          "internalType": "address",
          "name": "_owner",
          "type": "address"
        },
        {
          "internalType": "address",
          "name": "_operator",
          "type": "address"
        }
      ],
      "name": "isApprovedForAll",
      "outputs": [
        {
          "internalType": "bool",
          "name": "isOperator",
          "type": "bool"
        }
      ],
      "stateMutability": "view",
      "type": "function"
    },
    {
      "inputs": [
        {
          "internalType": "uint256",
          "name": "_id",
          "type": "uint256"
        }
      ],
      "name": "maxSupply",
      "outputs": [
        {
          "internalType": "uint256",
          "name": "",
          "type": "uint256"
        }
      ],
      "stateMutability": "view",
      "type": "function"
    },
    {
      "inputs": [
        {
          "internalType": "address",
          "name": "_to",
          "type": "address"
        },
        {
          "internalType": "uint256",
          "name": "_id",
          "type": "uint256"
        },
        {
          "internalType": "uint256",
          "name": "_quantity",
          "type": "uint256"
        },
        {
          "internalType": "bytes",
          "name": "_data",
          "type": "bytes"
        }
      ],
      "name": "mint",
      "outputs": [],
      "stateMutability": "nonpayable",
      "type": "function"
    },
    {
      "inputs": [
        {
          "internalType": "address",
          "name": "_to",
          "type": "address"
        },
        {
          "internalType": "uint256[]",
          "name": "_ids",
          "type": "uint256[]"
        },
        {
          "internalType": "uint256[]",
          "name": "_quantities",
          "type": "uint256[]"
        },
        {
          "internalType": "bytes",
          "name": "_data",
          "type": "bytes"
        }
      ],
      "name": "mintBatch",
      "outputs": [],
      "stateMutability": "nonpayable",
      "type": "function"
    },
    {
      "inputs": [],
      "name": "name",
      "outputs": [
        {
          "internalType": "string",
          "name": "",
          "type": "string"
        }
      ],
      "stateMutability": "view",
      "type": "function"
    },
    {
      "inputs": [],
      "name": "owner",
      "outputs": [
        {
          "internalType": "address",
          "name": "",
          "type": "address"
        }
      ],
      "stateMutability": "view",
      "type": "function"
    },
    {
      "inputs": [],
      "name": "pause",
      "outputs": [],
      "stateMutability": "nonpayable",
      "type": "function"
    },
    {
      "inputs": [],
      "name": "paused",
      "outputs": [
        {
          "internalType": "bool",
          "name": "",
          "type": "bool"
        }
      ],
      "stateMutability": "view",
      "type": "function"
    },
    {
      "inputs": [],
      "name": "renounceOwnership",
      "outputs": [],
      "stateMutability": "nonpayable",
      "type": "function"
    },
    {
      "inputs": [
        {
          "internalType": "bytes32",
          "name": "role",
          "type": "bytes32"
        },
        {
          "internalType": "address",
          "name": "account",
          "type": "address"
        }
      ],
      "name": "renounceRole",
      "outputs": [],
      "stateMutability": "nonpayable",
      "type": "function"
    },
    {
      "inputs": [
        {
          "internalType": "bytes32",
          "name": "role",
          "type": "bytes32"
        },
        {
          "internalType": "address",
          "name": "account",
          "type": "address"
        }
      ],
      "name": "revokeRole",
      "outputs": [],
      "stateMutability": "nonpayable",
      "type": "function"
    },
    {
      "inputs": [
        {
          "internalType": "address",
          "name": "from",
          "type": "address"
        },
        {
          "internalType": "address",
          "name": "to",
          "type": "address"
        },
        {
          "internalType": "uint256[]",
          "name": "ids",
          "type": "uint256[]"
        },
        {
          "internalType": "uint256[]",
          "name": "amounts",
          "type": "uint256[]"
        },
        {
          "internalType": "bytes",
          "name": "data",
          "type": "bytes"
        }
      ],
      "name": "safeBatchTransferFrom",
      "outputs": [],
      "stateMutability": "nonpayable",
      "type": "function"
    },
    {
      "inputs": [
        {
          "internalType": "address",
          "name": "from",
          "type": "address"
        },
        {
          "internalType": "address",
          "name": "to",
          "type": "address"
        },
        {
          "internalType": "uint256",
          "name": "id",
          "type": "uint256"
        },
        {
          "internalType": "uint256",
          "name": "amount",
          "type": "uint256"
        },
        {
          "internalType": "bytes",
          "name": "data",
          "type": "bytes"
        }
      ],
      "name": "safeTransferFrom",
      "outputs": [],
      "stateMutability": "nonpayable",
      "type": "function"
    },
    {
      "inputs": [
        {
          "internalType": "address",
          "name": "operator",
          "type": "address"
        },
        {
          "internalType": "bool",
          "name": "approved",
          "type": "bool"
        }
      ],
      "name": "setApprovalForAll",
      "outputs": [],
      "stateMutability": "nonpayable",
      "type": "function"
    },
    {
      "inputs": [
        {
          "internalType": "string",
          "name": "_newBaseMetadataURI",
          "type": "string"
        }
      ],
      "name": "setBaseMetadataURI",
      "outputs": [],
      "stateMutability": "nonpayable",
      "type": "function"
    },
    {
      "inputs": [
        {
          "internalType": "address",
          "name": "_newProxyRegistryAddress",
          "type": "address"
        }
      ],
      "name": "setProxyRegistryAddress",
      "outputs": [],
      "stateMutability": "nonpayable",
      "type": "function"
    },
    {
      "inputs": [
        {
          "internalType": "bytes4",
          "name": "interfaceId",
          "type": "bytes4"
        }
      ],
      "name": "supportsInterface",
      "outputs": [
        {
          "internalType": "bool",
          "name": "",
          "type": "bool"
        }
      ],
      "stateMutability": "view",
      "type": "function"
    },
    {
      "inputs": [],
      "name": "symbol",
      "outputs": [
        {
          "internalType": "string",
          "name": "",
          "type": "string"
        }
      ],
      "stateMutability": "view",
      "type": "function"
    },
    {
      "inputs": [
        {
          "internalType": "uint256",
          "name": "",
          "type": "uint256"
        }
      ],
      "name": "tokenMaxSupply",
      "outputs": [
        {
          "internalType": "uint256",
          "name": "",
          "type": "uint256"
        }
      ],
      "stateMutability": "view",
      "type": "function"
    },
    {
      "inputs": [
        {
          "internalType": "uint256",
          "name": "",
          "type": "uint256"
        }
      ],
      "name": "tokenSupply",
      "outputs": [
        {
          "internalType": "uint256",
          "name": "",
          "type": "uint256"
        }
      ],
      "stateMutability": "view",
      "type": "function"
    },
    {
      "inputs": [
        {
          "internalType": "uint256",
          "name": "_id",
          "type": "uint256"
        }
      ],
      "name": "totalSupply",
      "outputs": [
        {
          "internalType": "uint256",
          "name": "",
          "type": "uint256"
        }
      ],
      "stateMutability": "view",
      "type": "function"
    },
    {
      "inputs": [
        {
          "internalType": "address",
          "name": "newOwner",
          "type": "address"
        }
      ],
      "name": "transferOwnership",
      "outputs": [],
      "stateMutability": "nonpayable",
      "type": "function"
    },
    {
      "inputs": [],
      "name": "unpause",
      "outputs": [],
      "stateMutability": "nonpayable",
      "type": "function"
    },
    {
      "inputs": [
        {
          "internalType": "uint256",
          "name": "_id",
          "type": "uint256"
        }
      ],
      "name": "uri",
      "outputs": [
        {
          "internalType": "string",
          "name": "",
          "type": "string"
        }
      ],
      "stateMutability": "view",
      "type": "function"
    }
  ],
  "transactionHash": "0xf874cd921fe9e544b20030b5af825327ef6d5284a070191013537cbb83e96766",
  "args": [
    "https://uat-eth-api.cryptokombat.com/hero/"
  ],
  "solcInputHash": "0b7fde1807866fb27198b4e13b15b988",
  "bytecode": "0x608060405260006009553480156200001657600080fd5b5060405162003f6338038062003f638339810160408190526200003991620003fc565b6040518060400160405280600f81526020016e2a32b9ba1021b7b63632b1ba34b7b760891b815250604051806040016040528060078152602001664552433131353560c81b81525060006040518060200160405280600081525080620000ae620000a86200018b60201b60201c565b6200018f565b620000b981620001df565b506006805460ff19169055620000d1600033620001f8565b620000fd7f9f2df0fed2c77648de5860a4cc508cd0818c85b8b8a1ab4ceeef8d981c8956a633620001f8565b620001297f65d7a28e3265b37a6474929f336521b332c1681b933f6cb9f3376673440d862a33620001f8565b5082516200013f90600d90602086019062000356565b5081516200015590600e90602085019062000356565b50600880546001600160a01b0319166001600160a01b039290921691909117905550620001849050816200023b565b5062000525565b3390565b600080546001600160a01b038381166001600160a01b0319831681178455604051919092169283917f8be0079c531659141344cd1fd0a4f28419497f9722a3daafe3b4186f6b6457e09190a35050565b8051620001f490600590602084019062000356565b5050565b6200020f82826200025060201b620015ed1760201c565b600082815260026020908152604090912062000236918390620015fb6200025c821b17901c565b505050565b8051620001f490600790602084019062000356565b620001f482826200027c565b600062000273836001600160a01b03841662000304565b90505b92915050565b60008281526001602090815260408083206001600160a01b038516845290915290205460ff16620001f45760008281526001602081815260408084206001600160a01b0386168086529252808420805460ff19169093179092559051339285917f2f8788117e7eff1d82e926ec794901d17c78024a50270940304540a733656f0d9190a45050565b60008181526001830160205260408120546200034d5750815460018181018455600084815260208082209093018490558454848252828601909352604090209190915562000276565b50600062000276565b8280546200036490620004d2565b90600052602060002090601f016020900481019282620003885760008555620003d3565b82601f10620003a357805160ff1916838001178555620003d3565b82800160010185558215620003d3579182015b82811115620003d3578251825591602001919060010190620003b6565b50620003e1929150620003e5565b5090565b5b80821115620003e15760008155600101620003e6565b600060208083850312156200040f578182fd5b82516001600160401b038082111562000426578384fd5b818501915085601f8301126200043a578384fd5b8151818111156200044f576200044f6200050f565b604051601f8201601f19908116603f011681019083821181831017156200047a576200047a6200050f565b81604052828152888684870101111562000492578687fd5b8693505b82841015620004b5578484018601518185018701529285019262000496565b82841115620004c657868684830101525b98975050505050505050565b600181811c90821680620004e757607f821691505b602082108114156200050957634e487b7160e01b600052602260045260246000fd5b50919050565b634e487b7160e01b600052604160045260246000fd5b613a2e80620005356000396000f3fe608060405234801561001057600080fd5b506004361061023b5760003560e01c80637e518ec81161013b578063ca15c873116100b8578063e63ab1e91161007c578063e63ab1e91461053c578063e985e9c514610563578063f242432a14610576578063f2fde38b14610589578063f5298aca1461059c57600080fd5b8063ca15c873146104b3578063cd53d08e146104c6578063d26ea6c0146104ef578063d539139314610502578063d547741f1461052957600080fd5b806391d14854116100ff57806391d148541461045d57806395d89b4114610470578063a217fddf14610478578063a22cb46514610480578063bd85b0391461049357600080fd5b80637e518ec8146103ea5780638456cb59146103fd578063869f7594146104055780638da5cb5b146104255780639010d07c1461044a57600080fd5b80632693ebf2116101c95780634e1273f41161018d5780634e1273f4146103915780635c975abb146103b15780636b20c454146103bc578063715018a6146103cf578063731133e9146103d757600080fd5b80632693ebf2146103305780632eb2c2d6146103505780632f2ff15d1461036357806336568abe146103765780633f4ba83a1461038957600080fd5b806306fdde031161021057806306fdde03146102bc5780630e89341c146102d15780631e80165b146102e45780631f7fdffa146102f9578063248a9ca31461030c57600080fd5b80624221f014610240578062fdd58e1461027357806301ffc9a71461028657806306f9363c146102a9575b600080fd5b61026061024e36600461301b565b600c6020526000908152604090205481565b6040519081526020015b60405180910390f35b610260610281366004612e23565b6105af565b610299610294366004613078565b61064b565b604051901515815260200161026a565b6102606102b7366004613111565b610656565b6102c461071e565b60405161026a91906133cc565b6102c46102df36600461301b565b6107ac565b6102f76102f2366004612fa2565b610850565b005b6102f7610307366004612d5c565b610af6565b61026061031a36600461301b565b6000908152600160208190526040909120015490565b61026061033e36600461301b565b600b6020526000908152604090205481565b6102f761035e366004612bdb565b610cc8565b6102f7610371366004613033565b610d58565b6102f7610384366004613033565b610d7f565b6102f7610da1565b6103a461039f366004612ed6565b610e47565b60405161026a9190613394565b60065460ff16610299565b6102f76103ca366004612cea565b610fa8565b6102f7610feb565b6102f76103e5366004612e82565b61104f565b6102f76103f83660046130cc565b611134565b6102f761117c565b61026061041336600461301b565b6000908152600c602052604090205490565b6000546001600160a01b03165b6040516001600160a01b03909116815260200161026a565b610432610458366004613057565b611220565b61029961046b366004613033565b61123f565b6102c461126a565b610260600081565b6102f761048e366004612df2565b611277565b6102606104a136600461301b565b6000908152600b602052604090205490565b6102606104c136600461301b565b61134e565b6104326104d436600461301b565b600a602052600090815260409020546001600160a01b031681565b6102f76104fd366004612b87565b611365565b6102607f9f2df0fed2c77648de5860a4cc508cd0818c85b8b8a1ab4ceeef8d981c8956a681565b6102f7610537366004613033565b6113c3565b6102607f65d7a28e3265b37a6474929f336521b332c1681b933f6cb9f3376673440d862a81565b610299610571366004612ba3565b6113cd565b6102f7610584366004612c84565b61149d565b6102f7610597366004612b87565b6114e2565b6102f76105aa366004612e4e565b6115aa565b60006001600160a01b0383166106205760405162461bcd60e51b815260206004820152602b60248201527f455243313135353a2062616c616e636520717565727920666f7220746865207a60448201526a65726f206164647265737360a81b60648201526084015b60405180910390fd5b5060008181526003602090815260408083206001600160a01b03861684529091529020545b92915050565b600061064582611610565b6000610662813361123f565b8061067757506000546001600160a01b031633145b6106935760405162461bcd60e51b815260040161061790613588565b838311156106b35760405162461bcd60e51b81526004016106179061372f565b60006106bd611650565b90506106c7611666565b6000818152600a6020526040902080546001600160a01b0319163317905583156106f7576106f73382868661167d565b6000818152600b60209081526040808320879055600c909152902085905590509392505050565b600d805461072b90613854565b80601f016020809104026020016040519081016040528092919081815260200182805461075790613854565b80156107a45780601f10610779576101008083540402835291602001916107a4565b820191906000526020600020905b81548152906001019060200180831161078757829003601f168201915b505050505081565b6000818152600a60205260409020546060906001600160a01b031661081e5760405162461bcd60e51b815260206004820152602260248201527f455243313135355472616461626c653a20746f6b656e206d7573742065786973604482015261747360f01b6064820152608401610617565b600761082983611755565b60405160200161083a9291906131d6565b6040516020818303038152906040529050919050565b61085b60003361123f565b8061087057506000546001600160a01b031633145b61088c5760405162461bcd60e51b815260040161061790613588565b81518351146108f85760405162461bcd60e51b815260206004820152603260248201527f455243313135355472616461626c653a206d61787320616e6420696e697469616044820152710d8e640d8cadccee8d040dad2e6dac2e8c6d60731b6064820152608401610617565b600083516001600160401b0381111561092157634e487b7160e01b600052604160045260246000fd5b60405190808252806020026020018201604052801561094a578160200160208202803683370190505b509050600084516001600160401b0381111561097657634e487b7160e01b600052604160045260246000fd5b60405190808252806020026020018201604052801561099f578160200160208202803683370190505b50905060005b8551811015610ae25760008682815181106109d057634e487b7160e01b600052603260045260246000fd5b6020026020010151905060008683815181106109fc57634e487b7160e01b600052603260045260246000fd5b6020026020010151905081811115610a265760405162461bcd60e51b81526004016106179061372f565b6000610a30611650565b9050610a3a611666565b6000818152600a6020908152604080832080546001600160a01b03191633179055600b8252808320859055600c909152902083905585518190879086908110610a9357634e487b7160e01b600052603260045260246000fd5b60200260200101818152505081858581518110610ac057634e487b7160e01b600052603260045260246000fd5b6020026020010181815250505050508080610ada906138bb565b9150506109a5565b50610aef3383838661186e565b5050505050565b610b207f9f2df0fed2c77648de5860a4cc508cd0818c85b8b8a1ab4ceeef8d981c8956a63361123f565b610b3c5760405162461bcd60e51b815260040161061790613427565b6001600160a01b038416610b625760405162461bcd60e51b8152600401610617906134fa565b8151835114610bcc5760405162461bcd60e51b815260206004820152603060248201527f455243313135355472616461626c653a2069647320616e6420616d6f756e747360448201526f040d8cadccee8d040dad2e6dac2e8c6d60831b6064820152608401610617565b60005b8351811015610cb5576000848281518110610bfa57634e487b7160e01b600052603260045260246000fd5b602002602001015190506000848381518110610c2657634e487b7160e01b600052603260045260246000fd5b6020908102919091018101516000848152600c8352604080822054600b909452902054909250610c579083906137af565b1115610c755760405162461bcd60e51b815260040161061790613663565b6000828152600b6020526040902054610c8f9082906137af565b6000928352600b6020526040909220919091555080610cad816138bb565b915050610bcf565b50610cc28484848461186e565b50505050565b6001600160a01b038516331480610ce45750610ce485336113cd565b610d4b5760405162461bcd60e51b815260206004820152603260248201527f455243313135353a207472616e736665722063616c6c6572206973206e6f74206044820152711bdddb995c881b9bdc88185c1c1c9bdd995960721b6064820152608401610617565b610aef85858585856119e5565b610d628282611bae565b6000828152600260205260409020610d7a90826115fb565b505050565b610d898282611bd5565b6000828152600260205260409020610d7a9082611c4f565b610dcb7f65d7a28e3265b37a6474929f336521b332c1681b933f6cb9f3376673440d862a3361123f565b610e3d5760405162461bcd60e51b815260206004820152603b60248201527f455243313135355072657365744d696e7465725061757365723a206d7573742060448201527f686176652070617573657220726f6c6520746f20756e706175736500000000006064820152608401610617565b610e45611c64565b565b60608151835114610eac5760405162461bcd60e51b815260206004820152602960248201527f455243313135353a206163636f756e747320616e6420696473206c656e677468604482015268040dad2e6dac2e8c6d60bb1b6064820152608401610617565b600083516001600160401b03811115610ed557634e487b7160e01b600052604160045260246000fd5b604051908082528060200260200182016040528015610efe578160200160208202803683370190505b50905060005b8451811015610fa057610f65858281518110610f3057634e487b7160e01b600052603260045260246000fd5b6020026020010151858381518110610f5857634e487b7160e01b600052603260045260246000fd5b60200260200101516105af565b828281518110610f8557634e487b7160e01b600052603260045260246000fd5b6020908102919091010152610f99816138bb565b9050610f04565b509392505050565b6001600160a01b038316331480610fc45750610fc483336113cd565b610fe05760405162461bcd60e51b8152600401610617906134b1565b610d7a838383611cf7565b6000546001600160a01b031633146110455760405162461bcd60e51b815260206004820181905260248201527f4f776e61626c653a2063616c6c6572206973206e6f7420746865206f776e65726044820152606401610617565b610e456000611ea4565b6110797f9f2df0fed2c77648de5860a4cc508cd0818c85b8b8a1ab4ceeef8d981c8956a63361123f565b6110955760405162461bcd60e51b815260040161061790613427565b6001600160a01b0384166110bb5760405162461bcd60e51b8152600401610617906134fa565b6000838152600c6020908152604080832054600b909252909120546110e19084906137af565b11156110ff5760405162461bcd60e51b815260040161061790613663565b6000838152600b60205260409020546111199083906137af565b6000848152600b6020526040902055610cc28484848461167d565b61113f60003361123f565b8061115457506000546001600160a01b031633145b6111705760405162461bcd60e51b815260040161061790613588565b61117981611ef4565b50565b6111a67f65d7a28e3265b37a6474929f336521b332c1681b933f6cb9f3376673440d862a3361123f565b6112185760405162461bcd60e51b815260206004820152603960248201527f455243313135355072657365744d696e7465725061757365723a206d7573742060448201527f686176652070617573657220726f6c6520746f207061757365000000000000006064820152608401610617565b610e45611f07565b60008281526002602052604081206112389083611f82565b9392505050565b60009182526001602090815260408084206001600160a01b0393909316845291905290205460ff1690565b600e805461072b90613854565b336001600160a01b03831614156112e25760405162461bcd60e51b815260206004820152602960248201527f455243313135353a2073657474696e6720617070726f76616c20737461747573604482015268103337b91039b2b63360b91b6064820152608401610617565b3360008181526004602090815260408083206001600160a01b03871680855290835292819020805460ff191686151590811790915590519081529192917f17307eab39ab6107e8899845ad3d59bd9653f200f220920489ca2b5937696c31910160405180910390a35050565b600081815260026020526040812061064590611f8e565b61137060003361123f565b8061138557506000546001600160a01b031633145b6113a15760405162461bcd60e51b815260040161061790613588565b600880546001600160a01b0319166001600160a01b0392909216919091179055565b610d898282611f98565b60085460405163c455279160e01b81526001600160a01b03848116600483015260009281169190841690829063c45527919060240160206040518083038186803b15801561141a57600080fd5b505afa15801561142e573d6000803e3d6000fd5b505050506040513d601f19601f8201168201806040525081019061145291906130b0565b6001600160a01b0316141561146b576001915050610645565b6001600160a01b0380851660009081526004602090815260408083209387168352929052205460ff165b949350505050565b6001600160a01b0385163314806114b957506114b985336113cd565b6114d55760405162461bcd60e51b8152600401610617906134b1565b610aef8585858585611fbf565b6000546001600160a01b0316331461153c5760405162461bcd60e51b815260206004820181905260248201527f4f776e61626c653a2063616c6c6572206973206e6f7420746865206f776e65726044820152606401610617565b6001600160a01b0381166115a15760405162461bcd60e51b815260206004820152602660248201527f4f776e61626c653a206e6577206f776e657220697320746865207a65726f206160448201526564647265737360d01b6064820152608401610617565b61117981611ea4565b6001600160a01b0383163314806115c657506115c683336113cd565b6115e25760405162461bcd60e51b8152600401610617906134b1565b610d7a8383836120e0565b6115f782826121e5565b5050565b6000611238836001600160a01b038416612250565b60006001600160e01b03198216636cdb3d1360e11b148061164157506001600160e01b031982166303a24d0760e21b145b8061064557506106458261229f565b6000600954600161166191906137af565b905090565b60098054906000611676836138bb565b9190505550565b6001600160a01b0384166116a35760405162461bcd60e51b8152600401610617906136ee565b336116c3816000876116b4886122c4565b6116bd886122c4565b8761231d565b60008481526003602090815260408083206001600160a01b0389168452909152812080548592906116f59084906137af565b909155505060408051858152602081018590526001600160a01b0380881692600092918516917fc3d58168c5ae7397731d063d5bbf3d657854427343f4c083240f7aacaa2d0f62910160405180910390a4610aef8160008787878761232b565b6060816117795750506040805180820190915260018152600360fc1b602082015290565b8160005b81156117a3578061178d816138bb565b915061179c9050600a836137c7565b915061177d565b6000816001600160401b038111156117cb57634e487b7160e01b600052604160045260246000fd5b6040519080825280601f01601f1916602001820160405280156117f5576020820181803683370190505b5090505b84156114955761180a6001836137fa565b9150611817600a866138d6565b6118229060306137af565b60f81b81838151811061184557634e487b7160e01b600052603260045260246000fd5b60200101906001600160f81b031916908160001a905350611867600a866137c7565b94506117f9565b6001600160a01b0384166118945760405162461bcd60e51b8152600401610617906136ee565b81518351146118b55760405162461bcd60e51b8152600401610617906136a6565b336118c58160008787878761231d565b60005b845181101561197d578381815181106118f157634e487b7160e01b600052603260045260246000fd5b60200260200101516003600087848151811061191d57634e487b7160e01b600052603260045260246000fd5b602002602001015181526020019081526020016000206000886001600160a01b03166001600160a01b03168152602001908152602001600020600082825461196591906137af565b90915550819050611975816138bb565b9150506118c8565b50846001600160a01b031660006001600160a01b0316826001600160a01b03167f4a39dc06d4c0dbc64b70af90fd698a233a518aa5d07e595d983b8c0526c8f7fb87876040516119ce9291906133a7565b60405180910390a4610aef81600087878787612496565b8151835114611a065760405162461bcd60e51b8152600401610617906136a6565b6001600160a01b038416611a2c5760405162461bcd60e51b815260040161061790613543565b33611a3b81878787878761231d565b60005b8451811015611b40576000858281518110611a6957634e487b7160e01b600052603260045260246000fd5b602002602001015190506000858381518110611a9557634e487b7160e01b600052603260045260246000fd5b60209081029190910181015160008481526003835260408082206001600160a01b038e168352909352919091205490915081811015611ae65760405162461bcd60e51b815260040161061790613619565b60008381526003602090815260408083206001600160a01b038e8116855292528083208585039055908b16825281208054849290611b259084906137af565b9250508190555050505080611b39906138bb565b9050611a3e565b50846001600160a01b0316866001600160a01b0316826001600160a01b03167f4a39dc06d4c0dbc64b70af90fd698a233a518aa5d07e595d983b8c0526c8f7fb8787604051611b909291906133a7565b60405180910390a4611ba6818787878787612496565b505050505050565b60008281526001602081905260409091200154611bcb8133612560565b610d7a83836121e5565b6001600160a01b0381163314611c455760405162461bcd60e51b815260206004820152602f60248201527f416363657373436f6e74726f6c3a2063616e206f6e6c792072656e6f756e636560448201526e103937b632b9903337b91039b2b63360891b6064820152608401610617565b6115f782826125c4565b6000611238836001600160a01b03841661262b565b60065460ff16611cad5760405162461bcd60e51b815260206004820152601460248201527314185d5cd8589b194e881b9bdd081c185d5cd95960621b6044820152606401610617565b6006805460ff191690557f5db9ee0a495bf2e6ff9c91a7834c1ba4fdd244a5e8aa4e537bd38aeae4b073aa335b6040516001600160a01b03909116815260200160405180910390a1565b6001600160a01b038316611d1d5760405162461bcd60e51b8152600401610617906135d6565b8051825114611d3e5760405162461bcd60e51b8152600401610617906136a6565b6000339050611d618185600086866040518060200160405280600081525061231d565b60005b8351811015611e45576000848281518110611d8f57634e487b7160e01b600052603260045260246000fd5b602002602001015190506000848381518110611dbb57634e487b7160e01b600052603260045260246000fd5b60209081029190910181015160008481526003835260408082206001600160a01b038c168352909352919091205490915081811015611e0c5760405162461bcd60e51b81526004016106179061346d565b60009283526003602090815260408085206001600160a01b038b1686529091529092209103905580611e3d816138bb565b915050611d64565b5060006001600160a01b0316846001600160a01b0316826001600160a01b03167f4a39dc06d4c0dbc64b70af90fd698a233a518aa5d07e595d983b8c0526c8f7fb8686604051611e969291906133a7565b60405180910390a450505050565b600080546001600160a01b038381166001600160a01b0319831681178455604051919092169283917f8be0079c531659141344cd1fd0a4f28419497f9722a3daafe3b4186f6b6457e09190a35050565b80516115f79060079060208401906129fe565b60065460ff1615611f4d5760405162461bcd60e51b815260206004820152601060248201526f14185d5cd8589b194e881c185d5cd95960821b6044820152606401610617565b6006805460ff191660011790557f62e78cea01bee320cd4e420270b5ea74000d11b0c9f74754ebdbfc544b05a258611cda3390565b60006112388383612748565b6000610645825490565b60008281526001602081905260409091200154611fb58133612560565b610d7a83836125c4565b6001600160a01b038416611fe55760405162461bcd60e51b815260040161061790613543565b33611ff58187876116b4886122c4565b60008481526003602090815260408083206001600160a01b038a168452909152902054838110156120385760405162461bcd60e51b815260040161061790613619565b60008581526003602090815260408083206001600160a01b038b81168552925280832087850390559088168252812080548692906120779084906137af565b909155505060408051868152602081018690526001600160a01b03808916928a821692918616917fc3d58168c5ae7397731d063d5bbf3d657854427343f4c083240f7aacaa2d0f62910160405180910390a46120d782888888888861232b565b50505050505050565b6001600160a01b0383166121065760405162461bcd60e51b8152600401610617906135d6565b3361213581856000612117876122c4565b612120876122c4565b6040518060200160405280600081525061231d565b60008381526003602090815260408083206001600160a01b0388168452909152902054828110156121785760405162461bcd60e51b81526004016106179061346d565b60008481526003602090815260408083206001600160a01b03898116808652918452828520888703905582518981529384018890529092908616917fc3d58168c5ae7397731d063d5bbf3d657854427343f4c083240f7aacaa2d0f62910160405180910390a45050505050565b6121ef828261123f565b6115f75760008281526001602081815260408084206001600160a01b0386168086529252808420805460ff19169093179092559051339285917f2f8788117e7eff1d82e926ec794901d17c78024a50270940304540a733656f0d9190a45050565b600081815260018301602052604081205461229757508154600181810184556000848152602080822090930184905584548482528286019093526040902091909155610645565b506000610645565b60006001600160e01b03198216635a05180f60e01b1480610645575061064582612780565b6040805160018082528183019092526060916000919060208083019080368337019050509050828160008151811061230c57634e487b7160e01b600052603260045260246000fd5b602090810291909101015292915050565b611ba68686868686866127b5565b6001600160a01b0384163b15611ba65760405163f23a6e6160e01b81526001600160a01b0385169063f23a6e619061236f908990899088908890889060040161334f565b602060405180830381600087803b15801561238957600080fd5b505af19250505080156123b9575060408051601f3d908101601f191682019092526123b691810190613094565b60015b612466576123c561392c565b806308c379a014156123ff57506123da613944565b806123e55750612401565b8060405162461bcd60e51b815260040161061791906133cc565b505b60405162461bcd60e51b815260206004820152603460248201527f455243313135353a207472616e7366657220746f206e6f6e20455243313135356044820152732932b1b2b4bb32b91034b6b83632b6b2b73a32b960611b6064820152608401610617565b6001600160e01b0319811663f23a6e6160e01b146120d75760405162461bcd60e51b8152600401610617906133df565b6001600160a01b0384163b15611ba65760405163bc197c8160e01b81526001600160a01b0385169063bc197c81906124da90899089908890889088906004016132f1565b602060405180830381600087803b1580156124f457600080fd5b505af1925050508015612524575060408051601f3d908101601f1916820190925261252191810190613094565b60015b612530576123c561392c565b6001600160e01b0319811663bc197c8160e01b146120d75760405162461bcd60e51b8152600401610617906133df565b61256a828261123f565b6115f757612582816001600160a01b0316601461281d565b61258d83602061281d565b60405160200161259e92919061327c565b60408051601f198184030181529082905262461bcd60e51b8252610617916004016133cc565b6125ce828261123f565b156115f75760008281526001602090815260408083206001600160a01b0385168085529252808320805460ff1916905551339285917ff6391f5c32d9c69d2a47ea670b442974b53935d1edc7fd64eb21e047a839171b9190a45050565b6000818152600183016020526040812054801561273e57600061264f6001836137fa565b8554909150600090612663906001906137fa565b90508181146126e457600086600001828154811061269157634e487b7160e01b600052603260045260246000fd5b90600052602060002001549050808760000184815481106126c257634e487b7160e01b600052603260045260246000fd5b6000918252602080832090910192909255918252600188019052604090208390555b855486908061270357634e487b7160e01b600052603160045260246000fd5b600190038181906000526020600020016000905590558560010160008681526020019081526020016000206000905560019350505050610645565b6000915050610645565b600082600001828154811061276d57634e487b7160e01b600052603260045260246000fd5b9060005260206000200154905092915050565b60006001600160e01b03198216637965db0b60e01b148061064557506301ffc9a760e01b6001600160e01b0319831614610645565b60065460ff1615611ba65760405162461bcd60e51b815260206004820152602c60248201527f455243313135355061757361626c653a20746f6b656e207472616e736665722060448201526b1dda1a5b19481c185d5cd95960a21b6064820152608401610617565b6060600061282c8360026137db565b6128379060026137af565b6001600160401b0381111561285c57634e487b7160e01b600052604160045260246000fd5b6040519080825280601f01601f191660200182016040528015612886576020820181803683370190505b509050600360fc1b816000815181106128af57634e487b7160e01b600052603260045260246000fd5b60200101906001600160f81b031916908160001a905350600f60fb1b816001815181106128ec57634e487b7160e01b600052603260045260246000fd5b60200101906001600160f81b031916908160001a90535060006129108460026137db565b61291b9060016137af565b90505b60018111156129af576f181899199a1a9b1b9c1cb0b131b232b360811b85600f166010811061295d57634e487b7160e01b600052603260045260246000fd5b1a60f81b82828151811061298157634e487b7160e01b600052603260045260246000fd5b60200101906001600160f81b031916908160001a90535060049490941c936129a88161383d565b905061291e565b5083156112385760405162461bcd60e51b815260206004820181905260248201527f537472696e67733a20686578206c656e67746820696e73756666696369656e746044820152606401610617565b828054612a0a90613854565b90600052602060002090601f016020900481019282612a2c5760008555612a72565b82601f10612a4557805160ff1916838001178555612a72565b82800160010185558215612a72579182015b82811115612a72578251825591602001919060010190612a57565b50612a7e929150612a82565b5090565b5b80821115612a7e5760008155600101612a83565b60006001600160401b03831115612ab057612ab0613916565b604051612ac7601f8501601f19166020018261388f565b809150838152848484011115612adc57600080fd5b83836020830137600060208583010152509392505050565b600082601f830112612b04578081fd5b81356020612b118261378c565b604051612b1e828261388f565b8381528281019150858301600585901b87018401881015612b3d578586fd5b855b85811015612b5b57813584529284019290840190600101612b3f565b5090979650505050505050565b600082601f830112612b78578081fd5b61123883833560208501612a97565b600060208284031215612b98578081fd5b8135611238816139cd565b60008060408385031215612bb5578081fd5b8235612bc0816139cd565b91506020830135612bd0816139cd565b809150509250929050565b600080600080600060a08688031215612bf2578081fd5b8535612bfd816139cd565b94506020860135612c0d816139cd565b935060408601356001600160401b0380821115612c28578283fd5b612c3489838a01612af4565b94506060880135915080821115612c49578283fd5b612c5589838a01612af4565b93506080880135915080821115612c6a578283fd5b50612c7788828901612b68565b9150509295509295909350565b600080600080600060a08688031215612c9b578081fd5b8535612ca6816139cd565b94506020860135612cb6816139cd565b9350604086013592506060860135915060808601356001600160401b03811115612cde578182fd5b612c7788828901612b68565b600080600060608486031215612cfe578283fd5b8335612d09816139cd565b925060208401356001600160401b0380821115612d24578384fd5b612d3087838801612af4565b93506040860135915080821115612d45578283fd5b50612d5286828701612af4565b9150509250925092565b60008060008060808587031215612d71578384fd5b8435612d7c816139cd565b935060208501356001600160401b0380821115612d97578485fd5b612da388838901612af4565b94506040870135915080821115612db8578384fd5b612dc488838901612af4565b93506060870135915080821115612dd9578283fd5b50612de687828801612b68565b91505092959194509250565b60008060408385031215612e04578182fd5b8235612e0f816139cd565b915060208301358015158114612bd0578182fd5b60008060408385031215612e35578182fd5b8235612e40816139cd565b946020939093013593505050565b600080600060608486031215612e62578081fd5b8335612e6d816139cd565b95602085013595506040909401359392505050565b60008060008060808587031215612e97578182fd5b8435612ea2816139cd565b9350602085013592506040850135915060608501356001600160401b03811115612eca578182fd5b612de687828801612b68565b60008060408385031215612ee8578182fd5b82356001600160401b0380821115612efe578384fd5b818501915085601f830112612f11578384fd5b81356020612f1e8261378c565b604051612f2b828261388f565b8381528281019150858301600585901b870184018b1015612f4a578889fd5b8896505b84871015612f75578035612f61816139cd565b835260019690960195918301918301612f4e565b5096505086013592505080821115612f8b578283fd5b50612f9885828601612af4565b9150509250929050565b600080600060608486031215612fb6578081fd5b83356001600160401b0380821115612fcc578283fd5b612fd887838801612af4565b94506020860135915080821115612fed578283fd5b612ff987838801612af4565b9350604086013591508082111561300e578283fd5b50612d5286828701612b68565b60006020828403121561302c578081fd5b5035919050565b60008060408385031215613045578182fd5b823591506020830135612bd0816139cd565b60008060408385031215613069578182fd5b50508035926020909101359150565b600060208284031215613089578081fd5b8135611238816139e2565b6000602082840312156130a5578081fd5b8151611238816139e2565b6000602082840312156130c1578081fd5b8151611238816139cd565b6000602082840312156130dd578081fd5b81356001600160401b038111156130f2578182fd5b8201601f81018413613102578182fd5b61149584823560208401612a97565b600080600060608486031215613125578081fd5b833592506020840135915060408401356001600160401b03811115613148578182fd5b612d5286828701612b68565b6000815180845260208085019450808401835b8381101561318357815187529582019590820190600101613167565b509495945050505050565b600081518084526131a6816020860160208601613811565b601f01601f19169290920160200192915050565b600081516131cc818560208601613811565b9290920192915050565b600080845482600182811c9150808316806131f257607f831692505b602080841082141561321257634e487b7160e01b87526022600452602487fd5b818015613226576001811461323757613263565b60ff19861689528489019650613263565b60008b815260209020885b8681101561325b5781548b820152908501908301613242565b505084890196505b50505050505061327381856131ba565b95945050505050565b7f416363657373436f6e74726f6c3a206163636f756e74200000000000000000008152600083516132b4816017850160208801613811565b7001034b99036b4b9b9b4b733903937b6329607d1b60179184019182015283516132e5816028840160208801613811565b01602801949350505050565b6001600160a01b0386811682528516602082015260a06040820181905260009061331d90830186613154565b828103606084015261332f8186613154565b90508281036080840152613343818561318e565b98975050505050505050565b6001600160a01b03868116825285166020820152604081018490526060810183905260a0608082018190526000906133899083018461318e565b979650505050505050565b6020815260006112386020830184613154565b6040815260006133ba6040830185613154565b82810360208401526132738185613154565b602081526000611238602083018461318e565b60208082526028908201527f455243313135353a204552433131353552656365697665722072656a656374656040820152676420746f6b656e7360c01b606082015260800190565b60208082526026908201527f455243313135355472616461626c653a206d7573742068617665206d696e74656040820152657220726f6c6560d01b606082015260800190565b60208082526024908201527f455243313135353a206275726e20616d6f756e7420657863656564732062616c604082015263616e636560e01b606082015260800190565b60208082526029908201527f455243313135353a2063616c6c6572206973206e6f74206f776e6572206e6f7260408201526808185c1c1c9bdd995960ba1b606082015260800190565b60208082526029908201527f455243313135355472616461626c653a206d696e7420746f20746865207a65726040820152686f206164647265737360b81b606082015260800190565b60208082526025908201527f455243313135353a207472616e7366657220746f20746865207a65726f206164604082015264647265737360d81b606082015260800190565b6020808252602e908201527f455243313135355472616461626c653a206d75737420686176652061646d696e60408201526d206f72206f776e657220726f6c6560901b606082015260800190565b60208082526023908201527f455243313135353a206275726e2066726f6d20746865207a65726f206164647260408201526265737360e81b606082015260800190565b6020808252602a908201527f455243313135353a20696e73756666696369656e742062616c616e636520666f60408201526939103a3930b739b332b960b11b606082015260800190565b60208082526023908201527f455243313135355472616461626c653a204d617820737570706c7920726561636040820152621a195960ea1b606082015260800190565b60208082526028908201527f455243313135353a2069647320616e6420616d6f756e7473206c656e677468206040820152670dad2e6dac2e8c6d60c31b606082015260800190565b60208082526021908201527f455243313135353a206d696e7420746f20746865207a65726f206164647265736040820152607360f81b606082015260800190565b6020808252603e908201527f455243313135355472616461626c653a20496e697469616c20737570706c792060408201527f63616e6e6f74206265206d6f7265207468616e206d617820737570706c790000606082015260800190565b60006001600160401b038211156137a5576137a5613916565b5060051b60200190565b600082198211156137c2576137c26138ea565b500190565b6000826137d6576137d6613900565b500490565b60008160001904831182151516156137f5576137f56138ea565b500290565b60008282101561380c5761380c6138ea565b500390565b60005b8381101561382c578181015183820152602001613814565b83811115610cc25750506000910152565b60008161384c5761384c6138ea565b506000190190565b600181811c9082168061386857607f821691505b6020821081141561388957634e487b7160e01b600052602260045260246000fd5b50919050565b601f8201601f191681016001600160401b03811182821017156138b4576138b4613916565b6040525050565b60006000198214156138cf576138cf6138ea565b5060010190565b6000826138e5576138e5613900565b500690565b634e487b7160e01b600052601160045260246000fd5b634e487b7160e01b600052601260045260246000fd5b634e487b7160e01b600052604160045260246000fd5b600060033d111561394157600481823e5160e01c5b90565b600060443d10156139525790565b6040516003193d81016004833e81513d6001600160401b03816024840111818411171561398157505050505090565b82850191508151818111156139995750505050505090565b843d87010160208285010111156139b35750505050505090565b6139c26020828601018761388f565b509095945050505050565b6001600160a01b038116811461117957600080fd5b6001600160e01b03198116811461117957600080fdfea2646970667358221220b579862815d89f6b327a0dc535f439a5075c0e3d2faad06149b8c5c334e44e2764736f6c63430008040033",
  "devdoc": {
    "kind": "dev",
    "methods": {
      "balanceOf(address,uint256)": {
        "details": "See {IERC1155-balanceOf}. Requirements: - `account` cannot be the zero address."
      },
      "balanceOfBatch(address[],uint256[])": {
        "details": "See {IERC1155-balanceOfBatch}. Requirements: - `accounts` and `ids` must have the same length."
      },
      "create(uint256,uint256,bytes)": {
        "details": "Creates a new token type and assigns _initial to a sender",
        "params": {
          "_data": "Optional data to pass if receiver is contract",
          "_initial": "Optional amount to supply the first owner",
          "_max": "max supply allowed"
        },
        "returns": {
          "tokenId": "The newly created token ID"
        }
      },
      "createBatch(uint256[],uint256[],bytes)": {
        "details": "Creates some amount of tokens type and assigns initials to a sender",
        "params": {
          "_initials": "Optional amount to supply the first owner",
          "_maxs": "max supply allowed"
        }
      },
      "getRoleAdmin(bytes32)": {
        "details": "Returns the admin role that controls `role`. See {grantRole} and {revokeRole}. To change a role's admin, use {_setRoleAdmin}."
      },
      "getRoleMember(bytes32,uint256)": {
        "details": "Returns one of the accounts that have `role`. `index` must be a value between 0 and {getRoleMemberCount}, non-inclusive. Role bearers are not sorted in any particular way, and their ordering may change at any point. WARNING: When using {getRoleMember} and {getRoleMemberCount}, make sure you perform all queries on the same block. See the following https://forum.openzeppelin.com/t/iterating-over-elements-on-enumerableset-in-openzeppelin-contracts/2296[forum post] for more information."
      },
      "getRoleMemberCount(bytes32)": {
        "details": "Returns the number of accounts that have `role`. Can be used together with {getRoleMember} to enumerate all bearers of a role."
      },
      "grantRole(bytes32,address)": {
        "details": "Overload {grantRole} to track enumerable memberships"
      },
      "hasRole(bytes32,address)": {
        "details": "Returns `true` if `account` has been granted `role`."
      },
      "maxSupply(uint256)": {
        "details": "Returns the max quantity for a token ID",
        "params": {
          "_id": "uint256 ID of the token to query"
        },
        "returns": {
          "_0": "amount of token in existence"
        }
      },
      "mint(address,uint256,uint256,bytes)": {
        "details": "Mints some amount of tokens to an address",
        "params": {
          "_data": "Data to pass if receiver is contract",
          "_id": "Token ID to mint",
          "_quantity": "Amount of tokens to mint",
          "_to": "Address of the future owner of the token"
        }
      },
      "mintBatch(address,uint256[],uint256[],bytes)": {
        "details": "Mint tokens for each id in _ids",
        "params": {
          "_data": "Data to pass if receiver is contract",
          "_ids": "Array of ids to mint",
          "_quantities": "Array of amounts of tokens to mint per id",
          "_to": "The address to mint tokens to"
        }
      },
      "owner()": {
        "details": "Returns the address of the current owner."
      },
      "pause()": {
        "details": "Pauses all token transfers. See {ERC1155Pausable} and {Pausable-_pause}. Requirements: - the caller must have the `PAUSER_ROLE`."
      },
      "paused()": {
        "details": "Returns true if the contract is paused, and false otherwise."
      },
      "renounceOwnership()": {
        "details": "Leaves the contract without owner. It will not be possible to call `onlyOwner` functions anymore. Can only be called by the current owner. NOTE: Renouncing ownership will leave the contract without an owner, thereby removing any functionality that is only available to the owner."
      },
      "renounceRole(bytes32,address)": {
        "details": "Overload {renounceRole} to track enumerable memberships"
      },
      "revokeRole(bytes32,address)": {
        "details": "Overload {revokeRole} to track enumerable memberships"
      },
      "safeBatchTransferFrom(address,address,uint256[],uint256[],bytes)": {
        "details": "See {IERC1155-safeBatchTransferFrom}."
      },
      "safeTransferFrom(address,address,uint256,uint256,bytes)": {
        "details": "See {IERC1155-safeTransferFrom}."
      },
      "setApprovalForAll(address,bool)": {
        "details": "See {IERC1155-setApprovalForAll}."
      },
      "setBaseMetadataURI(string)": {
        "details": "Will update the base URL of token's URI",
        "params": {
          "_newBaseMetadataURI": "New base URL of token's URI"
        }
      },
      "setProxyRegistryAddress(address)": {
        "details": "Will update the proxyRegistryAddress",
        "params": {
          "_newProxyRegistryAddress": "New proxyRegistryAddress"
        }
      },
      "supportsInterface(bytes4)": {
        "details": "See {IERC165-supportsInterface}."
      },
      "totalSupply(uint256)": {
        "details": "Returns the total quantity for a token ID",
        "params": {
          "_id": "uint256 ID of the token to query"
        },
        "returns": {
          "_0": "amount of token in existence"
        }
      },
      "transferOwnership(address)": {
        "details": "Transfers ownership of the contract to a new account (`newOwner`). Can only be called by the current owner."
      },
      "unpause()": {
        "details": "Unpauses all token transfers. See {ERC1155Pausable} and {Pausable-_unpause}. Requirements: - the caller must have the `PAUSER_ROLE`."
      }
    },
    "version": 1
  },
  "userdoc": {
    "kind": "user",
    "methods": {
      "isApprovedForAll(address,address)": {
        "notice": "Override isApprovedForAll to whitelist user's OpenSea proxy accounts to enable gas-free listings."
      }
    },
    "version": 1
  },
  "storageLayout": {
    "storage": [
      {
        "astId": 857,
        "contract": "contracts/test/TestERC1155.sol:TestERC1155",
        "label": "_owner",
        "offset": 0,
        "slot": "0",
        "type": "t_address"
      },
      {
        "astId": 290,
        "contract": "contracts/test/TestERC1155.sol:TestERC1155",
        "label": "_roles",
        "offset": 0,
        "slot": "1",
        "type": "t_mapping(t_bytes32,t_struct(RoleData)285_storage)"
      },
      {
        "astId": 591,
        "contract": "contracts/test/TestERC1155.sol:TestERC1155",
        "label": "_roleMembers",
        "offset": 0,
        "slot": "2",
        "type": "t_mapping(t_bytes32,t_struct(AddressSet)4223_storage)"
      },
      {
        "astId": 1071,
        "contract": "contracts/test/TestERC1155.sol:TestERC1155",
        "label": "_balances",
        "offset": 0,
        "slot": "3",
        "type": "t_mapping(t_uint256,t_mapping(t_address,t_uint256))"
      },
      {
        "astId": 1077,
        "contract": "contracts/test/TestERC1155.sol:TestERC1155",
        "label": "_operatorApprovals",
        "offset": 0,
        "slot": "4",
        "type": "t_mapping(t_address,t_mapping(t_address,t_bool))"
      },
      {
        "astId": 1079,
        "contract": "contracts/test/TestERC1155.sol:TestERC1155",
        "label": "_uri",
        "offset": 0,
        "slot": "5",
        "type": "t_string_storage"
      },
      {
        "astId": 971,
        "contract": "contracts/test/TestERC1155.sol:TestERC1155",
        "label": "_paused",
        "offset": 0,
        "slot": "6",
        "type": "t_bool"
      },
      {
        "astId": 5477,
        "contract": "contracts/test/TestERC1155.sol:TestERC1155",
        "label": "baseMetadataURI",
        "offset": 0,
        "slot": "7",
        "type": "t_string_storage"
      },
      {
        "astId": 5479,
        "contract": "contracts/test/TestERC1155.sol:TestERC1155",
        "label": "proxyRegistryAddress",
        "offset": 0,
        "slot": "8",
        "type": "t_address"
      },
      {
        "astId": 5482,
        "contract": "contracts/test/TestERC1155.sol:TestERC1155",
        "label": "_currentTokenID",
        "offset": 0,
        "slot": "9",
        "type": "t_uint256"
      },
      {
        "astId": 5486,
        "contract": "contracts/test/TestERC1155.sol:TestERC1155",
        "label": "creators",
        "offset": 0,
        "slot": "10",
        "type": "t_mapping(t_uint256,t_address)"
      },
      {
        "astId": 5490,
        "contract": "contracts/test/TestERC1155.sol:TestERC1155",
        "label": "tokenSupply",
        "offset": 0,
        "slot": "11",
        "type": "t_mapping(t_uint256,t_uint256)"
      },
      {
        "astId": 5494,
        "contract": "contracts/test/TestERC1155.sol:TestERC1155",
        "label": "tokenMaxSupply",
        "offset": 0,
        "slot": "12",
        "type": "t_mapping(t_uint256,t_uint256)"
      },
      {
        "astId": 5496,
        "contract": "contracts/test/TestERC1155.sol:TestERC1155",
        "label": "name",
        "offset": 0,
        "slot": "13",
        "type": "t_string_storage"
      },
      {
        "astId": 5498,
        "contract": "contracts/test/TestERC1155.sol:TestERC1155",
        "label": "symbol",
        "offset": 0,
        "slot": "14",
        "type": "t_string_storage"
      }
    ],
    "types": {
      "t_address": {
        "encoding": "inplace",
        "label": "address",
        "numberOfBytes": "20"
      },
      "t_array(t_bytes32)dyn_storage": {
        "base": "t_bytes32",
        "encoding": "dynamic_array",
        "label": "bytes32[]",
        "numberOfBytes": "32"
      },
      "t_bool": {
        "encoding": "inplace",
        "label": "bool",
        "numberOfBytes": "1"
      },
      "t_bytes32": {
        "encoding": "inplace",
        "label": "bytes32",
        "numberOfBytes": "32"
      },
      "t_mapping(t_address,t_bool)": {
        "encoding": "mapping",
        "key": "t_address",
        "label": "mapping(address => bool)",
        "numberOfBytes": "32",
        "value": "t_bool"
      },
      "t_mapping(t_address,t_mapping(t_address,t_bool))": {
        "encoding": "mapping",
        "key": "t_address",
        "label": "mapping(address => mapping(address => bool))",
        "numberOfBytes": "32",
        "value": "t_mapping(t_address,t_bool)"
      },
      "t_mapping(t_address,t_uint256)": {
        "encoding": "mapping",
        "key": "t_address",
        "label": "mapping(address => uint256)",
        "numberOfBytes": "32",
        "value": "t_uint256"
      },
      "t_mapping(t_bytes32,t_struct(AddressSet)4223_storage)": {
        "encoding": "mapping",
        "key": "t_bytes32",
        "label": "mapping(bytes32 => struct EnumerableSet.AddressSet)",
        "numberOfBytes": "32",
        "value": "t_struct(AddressSet)4223_storage"
      },
      "t_mapping(t_bytes32,t_struct(RoleData)285_storage)": {
        "encoding": "mapping",
        "key": "t_bytes32",
        "label": "mapping(bytes32 => struct AccessControl.RoleData)",
        "numberOfBytes": "32",
        "value": "t_struct(RoleData)285_storage"
      },
      "t_mapping(t_bytes32,t_uint256)": {
        "encoding": "mapping",
        "key": "t_bytes32",
        "label": "mapping(bytes32 => uint256)",
        "numberOfBytes": "32",
        "value": "t_uint256"
      },
      "t_mapping(t_uint256,t_address)": {
        "encoding": "mapping",
        "key": "t_uint256",
        "label": "mapping(uint256 => address)",
        "numberOfBytes": "32",
        "value": "t_address"
      },
      "t_mapping(t_uint256,t_mapping(t_address,t_uint256))": {
        "encoding": "mapping",
        "key": "t_uint256",
        "label": "mapping(uint256 => mapping(address => uint256))",
        "numberOfBytes": "32",
        "value": "t_mapping(t_address,t_uint256)"
      },
      "t_mapping(t_uint256,t_uint256)": {
        "encoding": "mapping",
        "key": "t_uint256",
        "label": "mapping(uint256 => uint256)",
        "numberOfBytes": "32",
        "value": "t_uint256"
      },
      "t_string_storage": {
        "encoding": "bytes",
        "label": "string",
        "numberOfBytes": "32"
      },
      "t_struct(AddressSet)4223_storage": {
        "encoding": "inplace",
        "label": "struct EnumerableSet.AddressSet",
        "members": [
          {
            "astId": 4222,
            "contract": "contracts/test/TestERC1155.sol:TestERC1155",
            "label": "_inner",
            "offset": 0,
            "slot": "0",
            "type": "t_struct(Set)3922_storage"
          }
        ],
        "numberOfBytes": "64"
      },
      "t_struct(RoleData)285_storage": {
        "encoding": "inplace",
        "label": "struct AccessControl.RoleData",
        "members": [
          {
            "astId": 282,
            "contract": "contracts/test/TestERC1155.sol:TestERC1155",
            "label": "members",
            "offset": 0,
            "slot": "0",
            "type": "t_mapping(t_address,t_bool)"
          },
          {
            "astId": 284,
            "contract": "contracts/test/TestERC1155.sol:TestERC1155",
            "label": "adminRole",
            "offset": 0,
            "slot": "1",
            "type": "t_bytes32"
          }
        ],
        "numberOfBytes": "64"
      },
      "t_struct(Set)3922_storage": {
        "encoding": "inplace",
        "label": "struct EnumerableSet.Set",
        "members": [
          {
            "astId": 3917,
            "contract": "contracts/test/TestERC1155.sol:TestERC1155",
            "label": "_values",
            "offset": 0,
            "slot": "0",
            "type": "t_array(t_bytes32)dyn_storage"
          },
          {
            "astId": 3921,
            "contract": "contracts/test/TestERC1155.sol:TestERC1155",
            "label": "_indexes",
            "offset": 0,
            "slot": "1",
            "type": "t_mapping(t_bytes32,t_uint256)"
          }
        ],
        "numberOfBytes": "64"
      },
      "t_uint256": {
        "encoding": "inplace",
        "label": "uint256",
        "numberOfBytes": "32"
      }
    }
  }
}